{
  "_format": "hh-sol-artifact-1",
  "contractName": "MATR",
  "sourceName": "contracts/MATR.sol",
  "abi": [
    {
      "inputs": [],
      "stateMutability": "nonpayable",
      "type": "constructor"
    },
    {
      "anonymous": false,
      "inputs": [
        {
          "indexed": false,
          "internalType": "address",
          "name": "previousAdmin",
          "type": "address"
        },
        {
          "indexed": false,
          "internalType": "address",
          "name": "newAdmin",
          "type": "address"
        }
      ],
      "name": "AdminChanged",
      "type": "event"
    },
    {
      "anonymous": false,
      "inputs": [
        {
          "indexed": true,
          "internalType": "address",
          "name": "owner",
          "type": "address"
        },
        {
          "indexed": true,
          "internalType": "address",
          "name": "spender",
          "type": "address"
        },
        {
          "indexed": false,
          "internalType": "uint256",
          "name": "value",
          "type": "uint256"
        }
      ],
      "name": "Approval",
      "type": "event"
    },
    {
      "anonymous": false,
      "inputs": [
        {
          "indexed": true,
          "internalType": "address",
          "name": "beacon",
          "type": "address"
        }
      ],
      "name": "BeaconUpgraded",
      "type": "event"
    },
    {
      "anonymous": false,
      "inputs": [
        {
          "indexed": true,
          "internalType": "address",
          "name": "delegator",
          "type": "address"
        },
        {
          "indexed": true,
          "internalType": "address",
          "name": "fromDelegate",
          "type": "address"
        },
        {
          "indexed": true,
          "internalType": "address",
          "name": "toDelegate",
          "type": "address"
        }
      ],
      "name": "DelegateChanged",
      "type": "event"
    },
    {
      "anonymous": false,
      "inputs": [
        {
          "indexed": true,
          "internalType": "address",
          "name": "delegate",
          "type": "address"
        },
        {
          "indexed": false,
          "internalType": "uint256",
          "name": "previousBalance",
          "type": "uint256"
        },
        {
          "indexed": false,
          "internalType": "uint256",
          "name": "newBalance",
          "type": "uint256"
        }
      ],
      "name": "DelegateVotesChanged",
      "type": "event"
    },
    {
      "anonymous": false,
      "inputs": [
        {
          "indexed": false,
          "internalType": "address",
          "name": "account",
          "type": "address"
        }
      ],
      "name": "Paused",
      "type": "event"
    },
    {
      "anonymous": false,
      "inputs": [
        {
          "indexed": true,
          "internalType": "bytes32",
          "name": "role",
          "type": "bytes32"
        },
        {
          "indexed": true,
          "internalType": "bytes32",
          "name": "previousAdminRole",
          "type": "bytes32"
        },
        {
          "indexed": true,
          "internalType": "bytes32",
          "name": "newAdminRole",
          "type": "bytes32"
        }
      ],
      "name": "RoleAdminChanged",
      "type": "event"
    },
    {
      "anonymous": false,
      "inputs": [
        {
          "indexed": true,
          "internalType": "bytes32",
          "name": "role",
          "type": "bytes32"
        },
        {
          "indexed": true,
          "internalType": "address",
          "name": "account",
          "type": "address"
        },
        {
          "indexed": true,
          "internalType": "address",
          "name": "sender",
          "type": "address"
        }
      ],
      "name": "RoleGranted",
      "type": "event"
    },
    {
      "anonymous": false,
      "inputs": [
        {
          "indexed": true,
          "internalType": "bytes32",
          "name": "role",
          "type": "bytes32"
        },
        {
          "indexed": true,
          "internalType": "address",
          "name": "account",
          "type": "address"
        },
        {
          "indexed": true,
          "internalType": "address",
          "name": "sender",
          "type": "address"
        }
      ],
      "name": "RoleRevoked",
      "type": "event"
    },
    {
      "anonymous": false,
      "inputs": [
        {
          "indexed": true,
          "internalType": "address",
          "name": "from",
          "type": "address"
        },
        {
          "indexed": true,
          "internalType": "address",
          "name": "to",
          "type": "address"
        },
        {
          "indexed": false,
          "internalType": "uint256",
          "name": "value",
          "type": "uint256"
        }
      ],
      "name": "Transfer",
      "type": "event"
    },
    {
      "anonymous": false,
      "inputs": [
        {
          "indexed": false,
          "internalType": "address",
          "name": "account",
          "type": "address"
        }
      ],
      "name": "Unpaused",
      "type": "event"
    },
    {
      "anonymous": false,
      "inputs": [
        {
          "indexed": true,
          "internalType": "address",
          "name": "implementation",
          "type": "address"
        }
      ],
      "name": "Upgraded",
      "type": "event"
    },
    {
      "anonymous": false,
      "inputs": [
        {
          "indexed": true,
          "internalType": "uint256",
          "name": "_newBurnFee",
          "type": "uint256"
        }
      ],
      "name": "setBurnFee",
      "type": "event"
    },
    {
      "anonymous": false,
      "inputs": [
        {
          "indexed": true,
          "internalType": "uint256",
          "name": "_newBuyFee",
          "type": "uint256"
        }
      ],
      "name": "setBuyFee",
      "type": "event"
    },
    {
      "anonymous": false,
      "inputs": [
        {
          "indexed": true,
          "internalType": "uint256",
          "name": "_newFeeDecreasePercent",
          "type": "uint256"
        }
      ],
      "name": "setFeeDecreasePercent",
      "type": "event"
    },
    {
      "anonymous": false,
      "inputs": [
        {
          "indexed": true,
          "internalType": "uint256",
          "name": "_newFeeUpdatePeriod",
          "type": "uint256"
        }
      ],
      "name": "setFeeUpdatePeriod",
      "type": "event"
    },
    {
      "anonymous": false,
      "inputs": [
        {
          "indexed": true,
          "internalType": "uint256",
          "name": "_newFixSellFee",
          "type": "uint256"
        }
      ],
      "name": "setFixSellFee",
      "type": "event"
    },
    {
      "anonymous": false,
      "inputs": [
        {
          "indexed": true,
          "internalType": "uint256",
          "name": "_newMaxMintSupply",
          "type": "uint256"
        }
      ],
      "name": "setMaxMintSupply",
      "type": "event"
    },
    {
      "anonymous": false,
      "inputs": [
        {
          "indexed": true,
          "internalType": "uint256",
          "name": "_newSellFee",
          "type": "uint256"
        }
      ],
      "name": "setSellFee",
      "type": "event"
    },
    {
      "anonymous": false,
      "inputs": [
        {
          "indexed": true,
          "internalType": "address",
          "name": "_chef",
          "type": "address"
        }
      ],
      "name": "setStakingAddress",
      "type": "event"
    },
    {
      "anonymous": false,
      "inputs": [
        {
          "indexed": true,
          "internalType": "address",
          "name": "_treasury",
          "type": "address"
        }
      ],
      "name": "setTreasuryAddress",
      "type": "event"
    },
    {
      "anonymous": false,
      "inputs": [
        {
          "indexed": true,
          "internalType": "address",
          "name": "_pair",
          "type": "address"
        }
      ],
      "name": "setV3Pair",
      "type": "event"
    },
    {
      "anonymous": false,
      "inputs": [
        {
          "indexed": false,
          "internalType": "address",
          "name": "_user",
          "type": "address"
        },
        {
          "indexed": false,
          "internalType": "bool",
          "name": "_status",
          "type": "bool"
        }
      ],
      "name": "setWhiteListAddress",
      "type": "event"
    },
    {
      "inputs": [],
      "name": "ADMIN_ROLE",
      "outputs": [
        {
          "internalType": "bytes32",
          "name": "",
          "type": "bytes32"
        }
      ],
      "stateMutability": "view",
      "type": "function"
    },
    {
      "inputs": [],
      "name": "DAO_ROLE",
      "outputs": [
        {
          "internalType": "bytes32",
          "name": "",
          "type": "bytes32"
        }
      ],
      "stateMutability": "view",
      "type": "function"
    },
    {
      "inputs": [],
      "name": "DEFAULT_ADMIN_ROLE",
      "outputs": [
        {
          "internalType": "bytes32",
          "name": "",
          "type": "bytes32"
        }
      ],
      "stateMutability": "view",
      "type": "function"
    },
    {
      "inputs": [],
      "name": "DOMAIN_SEPARATOR",
      "outputs": [
        {
          "internalType": "bytes32",
          "name": "",
          "type": "bytes32"
        }
      ],
      "stateMutability": "view",
      "type": "function"
    },
    {
      "inputs": [],
      "name": "MINTER_ROLE",
      "outputs": [
        {
          "internalType": "bytes32",
          "name": "",
          "type": "bytes32"
        }
      ],
      "stateMutability": "view",
      "type": "function"
    },
    {
      "inputs": [],
      "name": "PAUSER_ROLE",
      "outputs": [
        {
          "internalType": "bytes32",
          "name": "",
          "type": "bytes32"
        }
      ],
      "stateMutability": "view",
      "type": "function"
    },
    {
      "inputs": [],
      "name": "UPGRADER_ROLE",
      "outputs": [
        {
          "internalType": "bytes32",
          "name": "",
          "type": "bytes32"
        }
      ],
      "stateMutability": "view",
      "type": "function"
    },
    {
      "inputs": [
        {
          "internalType": "address",
          "name": "owner",
          "type": "address"
        },
        {
          "internalType": "address",
          "name": "spender",
          "type": "address"
        }
      ],
      "name": "allowance",
      "outputs": [
        {
          "internalType": "uint256",
          "name": "",
          "type": "uint256"
        }
      ],
      "stateMutability": "view",
      "type": "function"
    },
    {
      "inputs": [
        {
          "internalType": "address",
          "name": "spender",
          "type": "address"
        },
        {
          "internalType": "uint256",
          "name": "amount",
          "type": "uint256"
        }
      ],
      "name": "approve",
      "outputs": [
        {
          "internalType": "bool",
          "name": "",
          "type": "bool"
        }
      ],
      "stateMutability": "nonpayable",
      "type": "function"
    },
    {
      "inputs": [
        {
          "internalType": "address",
          "name": "account",
          "type": "address"
        }
      ],
      "name": "balanceOf",
      "outputs": [
        {
          "internalType": "uint256",
          "name": "",
          "type": "uint256"
        }
      ],
      "stateMutability": "view",
      "type": "function"
    },
    {
      "inputs": [],
      "name": "burnFee",
      "outputs": [
        {
          "internalType": "uint256",
          "name": "",
          "type": "uint256"
        }
      ],
      "stateMutability": "view",
      "type": "function"
    },
    {
      "inputs": [],
      "name": "buyFee",
      "outputs": [
        {
          "internalType": "uint256",
          "name": "",
          "type": "uint256"
        }
      ],
      "stateMutability": "view",
      "type": "function"
    },
    {
      "inputs": [
        {
          "internalType": "address",
          "name": "account",
          "type": "address"
        },
        {
          "internalType": "uint32",
          "name": "pos",
          "type": "uint32"
        }
      ],
      "name": "checkpoints",
      "outputs": [
        {
          "components": [
            {
              "internalType": "uint32",
              "name": "fromBlock",
              "type": "uint32"
            },
            {
              "internalType": "uint224",
              "name": "votes",
              "type": "uint224"
            }
          ],
          "internalType": "struct ERC20VotesUpgradeable.Checkpoint",
          "name": "",
          "type": "tuple"
        }
      ],
      "stateMutability": "view",
      "type": "function"
    },
    {
      "inputs": [],
      "name": "deadWallet",
      "outputs": [
        {
          "internalType": "address",
          "name": "",
          "type": "address"
        }
      ],
      "stateMutability": "view",
      "type": "function"
    },
    {
      "inputs": [],
      "name": "decimals",
      "outputs": [
        {
          "internalType": "uint8",
          "name": "",
          "type": "uint8"
        }
      ],
      "stateMutability": "view",
      "type": "function"
    },
    {
      "inputs": [
        {
          "internalType": "address",
          "name": "spender",
          "type": "address"
        },
        {
          "internalType": "uint256",
          "name": "subtractedValue",
          "type": "uint256"
        }
      ],
      "name": "decreaseAllowance",
      "outputs": [
        {
          "internalType": "bool",
          "name": "",
          "type": "bool"
        }
      ],
      "stateMutability": "nonpayable",
      "type": "function"
    },
    {
      "inputs": [
        {
          "internalType": "address",
          "name": "delegatee",
          "type": "address"
        }
      ],
      "name": "delegate",
      "outputs": [],
      "stateMutability": "nonpayable",
      "type": "function"
    },
    {
      "inputs": [
        {
          "internalType": "address",
          "name": "delegatee",
          "type": "address"
        },
        {
          "internalType": "uint256",
          "name": "nonce",
          "type": "uint256"
        },
        {
          "internalType": "uint256",
          "name": "expiry",
          "type": "uint256"
        },
        {
          "internalType": "uint8",
          "name": "v",
          "type": "uint8"
        },
        {
          "internalType": "bytes32",
          "name": "r",
          "type": "bytes32"
        },
        {
          "internalType": "bytes32",
          "name": "s",
          "type": "bytes32"
        }
      ],
      "name": "delegateBySig",
      "outputs": [],
      "stateMutability": "nonpayable",
      "type": "function"
    },
    {
      "inputs": [
        {
          "internalType": "address",
          "name": "account",
          "type": "address"
        }
      ],
      "name": "delegates",
      "outputs": [
        {
          "internalType": "address",
          "name": "",
          "type": "address"
        }
      ],
      "stateMutability": "view",
      "type": "function"
    },
    {
      "inputs": [],
      "name": "feeDecreasePercent",
      "outputs": [
        {
          "internalType": "uint256",
          "name": "",
          "type": "uint256"
        }
      ],
      "stateMutability": "view",
      "type": "function"
    },
    {
      "inputs": [],
      "name": "feeStartTime",
      "outputs": [
        {
          "internalType": "uint256",
          "name": "",
          "type": "uint256"
        }
      ],
      "stateMutability": "view",
      "type": "function"
    },
    {
      "inputs": [],
      "name": "feeUpdatePeriod",
      "outputs": [
        {
          "internalType": "uint256",
          "name": "",
          "type": "uint256"
        }
      ],
      "stateMutability": "view",
      "type": "function"
    },
    {
      "inputs": [],
      "name": "fixSellFee",
      "outputs": [
        {
          "internalType": "uint256",
          "name": "",
          "type": "uint256"
        }
      ],
      "stateMutability": "view",
      "type": "function"
    },
    {
      "inputs": [],
      "name": "getBuyFee",
      "outputs": [
        {
          "internalType": "uint256",
          "name": "",
          "type": "uint256"
        }
      ],
      "stateMutability": "view",
      "type": "function"
    },
    {
      "inputs": [
        {
          "internalType": "uint256",
          "name": "blockNumber",
          "type": "uint256"
        }
      ],
      "name": "getPastTotalSupply",
      "outputs": [
        {
          "internalType": "uint256",
          "name": "",
          "type": "uint256"
        }
      ],
      "stateMutability": "view",
      "type": "function"
    },
    {
      "inputs": [
        {
          "internalType": "address",
          "name": "account",
          "type": "address"
        },
        {
          "internalType": "uint256",
          "name": "blockNumber",
          "type": "uint256"
        }
      ],
      "name": "getPastVotes",
      "outputs": [
        {
          "internalType": "uint256",
          "name": "",
          "type": "uint256"
        }
      ],
      "stateMutability": "view",
      "type": "function"
    },
    {
      "inputs": [
        {
          "internalType": "bytes32",
          "name": "role",
          "type": "bytes32"
        }
      ],
      "name": "getRoleAdmin",
      "outputs": [
        {
          "internalType": "bytes32",
          "name": "",
          "type": "bytes32"
        }
      ],
      "stateMutability": "view",
      "type": "function"
    },
    {
      "inputs": [],
      "name": "getSellFee",
      "outputs": [
        {
          "internalType": "uint256",
          "name": "",
          "type": "uint256"
        }
      ],
      "stateMutability": "view",
      "type": "function"
    },
    {
      "inputs": [
        {
          "internalType": "address",
          "name": "account",
          "type": "address"
        }
      ],
      "name": "getVotes",
      "outputs": [
        {
          "internalType": "uint256",
          "name": "",
          "type": "uint256"
        }
      ],
      "stateMutability": "view",
      "type": "function"
    },
    {
      "inputs": [
        {
          "internalType": "bytes32",
          "name": "role",
          "type": "bytes32"
        },
        {
          "internalType": "address",
          "name": "account",
          "type": "address"
        }
      ],
      "name": "grantRole",
      "outputs": [],
      "stateMutability": "nonpayable",
      "type": "function"
    },
    {
      "inputs": [
        {
          "internalType": "bytes32",
          "name": "role",
          "type": "bytes32"
        },
        {
          "internalType": "address",
          "name": "account",
          "type": "address"
        }
      ],
      "name": "hasRole",
      "outputs": [
        {
          "internalType": "bool",
          "name": "",
          "type": "bool"
        }
      ],
      "stateMutability": "view",
      "type": "function"
    },
    {
      "inputs": [
        {
          "internalType": "address",
          "name": "spender",
          "type": "address"
        },
        {
          "internalType": "uint256",
          "name": "addedValue",
          "type": "uint256"
        }
      ],
      "name": "increaseAllowance",
      "outputs": [
        {
          "internalType": "bool",
          "name": "",
          "type": "bool"
        }
      ],
      "stateMutability": "nonpayable",
      "type": "function"
    },
    {
      "inputs": [],
      "name": "initV2Pair",
      "outputs": [],
      "stateMutability": "nonpayable",
      "type": "function"
    },
    {
      "inputs": [
        {
          "internalType": "uint256",
          "name": "_maxMintSupply",
          "type": "uint256"
        },
        {
          "internalType": "uint256",
          "name": "_buyFee",
          "type": "uint256"
        },
        {
          "internalType": "uint256",
          "name": "_sellFee",
          "type": "uint256"
        },
        {
          "internalType": "uint256",
          "name": "_burnFee",
          "type": "uint256"
        },
        {
          "internalType": "uint256",
          "name": "_feeStartTime",
          "type": "uint256"
        },
        {
          "internalType": "uint256",
          "name": "_feeUpdatePeriod",
          "type": "uint256"
        },
        {
          "internalType": "uint256",
          "name": "_feeDecreasePercent",
          "type": "uint256"
        },
        {
          "internalType": "uint256",
          "name": "_fixSellFee",
          "type": "uint256"
        },
        {
          "internalType": "uint256",
          "name": "_supply",
          "type": "uint256"
        },
        {
          "internalType": "contract IUniswapV2Router",
          "name": "_swapRouter",
          "type": "address"
        }
      ],
      "name": "initialize",
      "outputs": [],
      "stateMutability": "nonpayable",
      "type": "function"
    },
    {
      "inputs": [
        {
          "internalType": "address",
          "name": "",
          "type": "address"
        }
      ],
      "name": "isWhitelist",
      "outputs": [
        {
          "internalType": "bool",
          "name": "",
          "type": "bool"
        }
      ],
      "stateMutability": "view",
      "type": "function"
    },
    {
      "inputs": [],
      "name": "masterChef",
      "outputs": [
        {
          "internalType": "address",
          "name": "",
          "type": "address"
        }
      ],
      "stateMutability": "view",
      "type": "function"
    },
    {
      "inputs": [],
      "name": "maxMintSupply",
      "outputs": [
        {
          "internalType": "uint256",
          "name": "",
          "type": "uint256"
        }
      ],
      "stateMutability": "view",
      "type": "function"
    },
    {
      "inputs": [
        {
          "internalType": "address",
          "name": "to",
          "type": "address"
        },
        {
          "internalType": "uint256",
          "name": "amount",
          "type": "uint256"
        }
      ],
      "name": "mint",
      "outputs": [],
      "stateMutability": "nonpayable",
      "type": "function"
    },
    {
      "inputs": [],
      "name": "name",
      "outputs": [
        {
          "internalType": "string",
          "name": "",
          "type": "string"
        }
      ],
      "stateMutability": "view",
      "type": "function"
    },
    {
      "inputs": [
        {
          "internalType": "address",
          "name": "owner",
          "type": "address"
        }
      ],
      "name": "nonces",
      "outputs": [
        {
          "internalType": "uint256",
          "name": "",
          "type": "uint256"
        }
      ],
      "stateMutability": "view",
      "type": "function"
    },
    {
      "inputs": [
        {
          "internalType": "address",
          "name": "account",
          "type": "address"
        }
      ],
      "name": "numCheckpoints",
      "outputs": [
        {
          "internalType": "uint32",
          "name": "",
          "type": "uint32"
        }
      ],
      "stateMutability": "view",
      "type": "function"
    },
    {
      "inputs": [],
      "name": "pause",
      "outputs": [],
      "stateMutability": "nonpayable",
      "type": "function"
    },
    {
      "inputs": [],
      "name": "paused",
      "outputs": [
        {
          "internalType": "bool",
          "name": "",
          "type": "bool"
        }
      ],
      "stateMutability": "view",
      "type": "function"
    },
    {
      "inputs": [
        {
          "internalType": "address",
          "name": "owner",
          "type": "address"
        },
        {
          "internalType": "address",
          "name": "spender",
          "type": "address"
        },
        {
          "internalType": "uint256",
          "name": "value",
          "type": "uint256"
        },
        {
          "internalType": "uint256",
          "name": "deadline",
          "type": "uint256"
        },
        {
          "internalType": "uint8",
          "name": "v",
          "type": "uint8"
        },
        {
          "internalType": "bytes32",
          "name": "r",
          "type": "bytes32"
        },
        {
          "internalType": "bytes32",
          "name": "s",
          "type": "bytes32"
        }
      ],
      "name": "permit",
      "outputs": [],
      "stateMutability": "nonpayable",
      "type": "function"
    },
    {
      "inputs": [
        {
          "internalType": "bytes32",
          "name": "role",
          "type": "bytes32"
        },
        {
          "internalType": "address",
          "name": "account",
          "type": "address"
        }
      ],
      "name": "renounceRole",
      "outputs": [],
      "stateMutability": "nonpayable",
      "type": "function"
    },
    {
      "inputs": [
        {
          "internalType": "bytes32",
          "name": "role",
          "type": "bytes32"
        },
        {
          "internalType": "address",
          "name": "account",
          "type": "address"
        }
      ],
      "name": "revokeRole",
      "outputs": [],
      "stateMutability": "nonpayable",
      "type": "function"
    },
    {
      "inputs": [],
      "name": "sellFee",
      "outputs": [
        {
          "internalType": "uint256",
          "name": "",
          "type": "uint256"
        }
      ],
      "stateMutability": "view",
      "type": "function"
    },
    {
      "inputs": [
        {
          "internalType": "address",
          "name": "_chef",
          "type": "address"
        }
      ],
      "name": "setMasterChefAddress",
      "outputs": [],
      "stateMutability": "nonpayable",
      "type": "function"
    },
    {
      "inputs": [
        {
          "internalType": "address",
          "name": "_pair",
          "type": "address"
        }
      ],
      "name": "setV3PairAddress",
      "outputs": [],
      "stateMutability": "nonpayable",
      "type": "function"
    },
    {
      "inputs": [
        {
          "internalType": "bytes4",
          "name": "interfaceId",
          "type": "bytes4"
        }
      ],
      "name": "supportsInterface",
      "outputs": [
        {
          "internalType": "bool",
          "name": "",
          "type": "bool"
        }
      ],
      "stateMutability": "view",
      "type": "function"
    },
    {
      "inputs": [],
      "name": "swapPair",
      "outputs": [
        {
          "internalType": "address",
          "name": "",
          "type": "address"
        }
      ],
      "stateMutability": "view",
      "type": "function"
    },
    {
      "inputs": [],
      "name": "swapRouter",
      "outputs": [
        {
          "internalType": "contract IUniswapV2Router",
          "name": "",
          "type": "address"
        }
      ],
      "stateMutability": "view",
      "type": "function"
    },
    {
      "inputs": [],
      "name": "symbol",
      "outputs": [
        {
          "internalType": "string",
          "name": "",
          "type": "string"
        }
      ],
      "stateMutability": "view",
      "type": "function"
    },
    {
      "inputs": [],
      "name": "totalSupply",
      "outputs": [
        {
          "internalType": "uint256",
          "name": "",
          "type": "uint256"
        }
      ],
      "stateMutability": "view",
      "type": "function"
    },
    {
      "inputs": [
        {
          "internalType": "address",
          "name": "recipient",
          "type": "address"
        },
        {
          "internalType": "uint256",
          "name": "amount",
          "type": "uint256"
        }
      ],
      "name": "transfer",
      "outputs": [
        {
          "internalType": "bool",
          "name": "",
          "type": "bool"
        }
      ],
      "stateMutability": "nonpayable",
      "type": "function"
    },
    {
      "inputs": [
        {
          "internalType": "address",
          "name": "sender",
          "type": "address"
        },
        {
          "internalType": "address",
          "name": "recipient",
          "type": "address"
        },
        {
          "internalType": "uint256",
          "name": "amount",
          "type": "uint256"
        }
      ],
      "name": "transferFrom",
      "outputs": [
        {
          "internalType": "bool",
          "name": "",
          "type": "bool"
        }
      ],
      "stateMutability": "nonpayable",
      "type": "function"
    },
    {
      "inputs": [],
      "name": "treasury",
      "outputs": [
        {
          "internalType": "address",
          "name": "",
          "type": "address"
        }
      ],
      "stateMutability": "view",
      "type": "function"
    },
    {
      "inputs": [],
      "name": "unpause",
      "outputs": [],
      "stateMutability": "nonpayable",
      "type": "function"
    },
    {
      "inputs": [
        {
          "internalType": "uint256",
          "name": "_newBurnFee",
          "type": "uint256"
        }
      ],
      "name": "updateBurnFee",
      "outputs": [],
      "stateMutability": "nonpayable",
      "type": "function"
    },
    {
      "inputs": [
        {
          "internalType": "uint256",
          "name": "_newBuyFee",
          "type": "uint256"
        }
      ],
      "name": "updateBuyFee",
      "outputs": [],
      "stateMutability": "nonpayable",
      "type": "function"
    },
    {
      "inputs": [
        {
          "internalType": "uint256",
          "name": "_newFeeDecreasePercent",
          "type": "uint256"
        }
      ],
      "name": "updateFeeDecreasePercent",
      "outputs": [],
      "stateMutability": "nonpayable",
      "type": "function"
    },
    {
      "inputs": [
        {
          "internalType": "uint256",
          "name": "_newFeeUpdatePeriod",
          "type": "uint256"
        }
      ],
      "name": "updateFeeUpdatePeriod",
      "outputs": [],
      "stateMutability": "nonpayable",
      "type": "function"
    },
    {
      "inputs": [
        {
          "internalType": "uint256",
          "name": "_newFixSellFee",
          "type": "uint256"
        }
      ],
      "name": "updateFixSellFee",
      "outputs": [],
      "stateMutability": "nonpayable",
      "type": "function"
    },
    {
      "inputs": [
        {
          "internalType": "uint256",
          "name": "_newMaxMintSupply",
          "type": "uint256"
        }
      ],
      "name": "updateMaxMintSupply",
      "outputs": [],
      "stateMutability": "nonpayable",
      "type": "function"
    },
    {
      "inputs": [
        {
          "internalType": "uint256",
          "name": "_newSellFee",
          "type": "uint256"
        }
      ],
      "name": "updateSellFee",
      "outputs": [],
      "stateMutability": "nonpayable",
      "type": "function"
    },
    {
      "inputs": [
        {
          "internalType": "address",
          "name": "_treasury",
          "type": "address"
        }
      ],
      "name": "updateTreasuryAddress",
      "outputs": [],
      "stateMutability": "nonpayable",
      "type": "function"
    },
    {
      "inputs": [
        {
          "internalType": "address",
          "name": "newImplementation",
          "type": "address"
        }
      ],
      "name": "upgradeTo",
      "outputs": [],
      "stateMutability": "nonpayable",
      "type": "function"
    },
    {
      "inputs": [
        {
          "internalType": "address",
          "name": "newImplementation",
          "type": "address"
        },
        {
          "internalType": "bytes",
          "name": "data",
          "type": "bytes"
        }
      ],
      "name": "upgradeToAndCall",
      "outputs": [],
      "stateMutability": "payable",
      "type": "function"
    },
    {
      "inputs": [],
      "name": "v3Pair",
      "outputs": [
        {
          "internalType": "address",
          "name": "",
          "type": "address"
        }
      ],
      "stateMutability": "view",
      "type": "function"
    },
    {
      "inputs": [
        {
          "internalType": "address",
          "name": "_user",
          "type": "address"
        },
        {
          "internalType": "bool",
          "name": "_status",
          "type": "bool"
        }
      ],
      "name": "whiteListAddress",
      "outputs": [],
      "stateMutability": "nonpayable",
      "type": "function"
    }
  ],
  "bytecode": "0x60a06040523060805234801561001457600080fd5b5060805161453861004560003960008181611288015281816112c8015281816114fe015261153e01526145386000f3fe6080604052600436106104055760003560e01c80637ecebe0011610213578063be1d86e111610123578063dd62ed3e116100ab578063f1127ed81161007a578063f1127ed814610c5d578063f57800c214610ca7578063f72c0d8b14610cbe578063fce589d814610cf2578063fdd445e714610d0957600080fd5b8063dd62ed3e14610bb3578063e63ab1e914610bf9578063e9c2651814610c1b578063eeaa89f314610c3d57600080fd5b8063c683630d116100f2578063c683630d14610af7578063ca357d0a14610b28578063d505accf14610b3f578063d539139314610b5f578063d547741f14610b9357600080fd5b8063be1d86e114610a7f578063c285e10714610a9f578063c31c9c0714610ab6578063c3cda52014610ad757600080fd5b806391d14854116101a65780639dd21928116101755780639dd21928146109ea578063a217fddf14610a0a578063a457c2d714610a1f578063a765482214610a3f578063a9059cbb14610a5f57600080fd5b806391d148541461097557806395d89b4114610995578063965edbbe146109aa5780639ab24eb0146109ca57600080fd5b806385141a77116101e257806385141a771461090a5780638a3f108d146109205780638e539e8c146109405780638f818b901461096057600080fd5b80637ecebe00146108a057806380a6eda5146108c0578063841e4561146108d55780638456cb59146108f557600080fd5b80633a46b1a811610319578063575a86b2116102a157806361d027b31161027057806361d027b3146107d25780636fcfff45146107f357806370a082311461082857806371e367531461085e57806375b238fc1461087e57600080fd5b8063575a86b21461073f578063587cde1e146107605780635c19a95c1461079a5780635c975abb146107ba57600080fd5b806347062402116102e857806347062402146106bd5780634f1ef286146106d457806355fa1c24146106e757806356b2d8b214610707578063572175c01461072857600080fd5b80633a46b1a8146106485780633f4ba83a1461066857806340c10f191461067d578063467abe0a1461069d57600080fd5b806326991cc81161039c578063313ce5671161036b578063313ce567146105b75780633644e515146105d357806336568abe146105e85780633659cfe614610608578063395093511461062857600080fd5b806326991cc814610532578063289af0d81461056b5780632b14ca56146105805780632f2ff15d1461059757600080fd5b806318160ddd116103d857806318160ddd146104a35780631d933a4a146104c257806323b872dd146104e2578063248a9ca31461050257600080fd5b806301ffc9a71461040a57806306fdde031461043f578063095ea7b3146104615780630c68ecd714610481575b600080fd5b34801561041657600080fd5b5061042a610425366004613cb9565b610d20565b60405190151581526020015b60405180910390f35b34801561044b57600080fd5b50610454610d57565b6040516104369190613d0f565b34801561046d57600080fd5b5061042a61047c366004613d57565b610de9565b34801561048d57600080fd5b506104a161049c366004613d83565b610dff565b005b3480156104af57600080fd5b506035545b604051908152602001610436565b3480156104ce57600080fd5b506104a16104dd366004613e02565b611060565b3480156104ee57600080fd5b5061042a6104fd366004613e1b565b6110ae565b34801561050e57600080fd5b506104b461051d366004613e02565b600090815260c9602052604090206001015490565b34801561053e57600080fd5b5061020154610553906001600160a01b031681565b6040516001600160a01b039091168152602001610436565b34801561057757600080fd5b506104b461115a565b34801561058c57600080fd5b506104b46101fa5481565b3480156105a357600080fd5b506104a16105b2366004613e5c565b6111c5565b3480156105c357600080fd5b5060405160128152602001610436565b3480156105df57600080fd5b506104b46111f0565b3480156105f457600080fd5b506104a1610603366004613e5c565b6111ff565b34801561061457600080fd5b506104a1610623366004613e8c565b61127d565b34801561063457600080fd5b5061042a610643366004613d57565b611346565b34801561065457600080fd5b506104b4610663366004613d57565b611382565b34801561067457600080fd5b506104a16113f6565b34801561068957600080fd5b506104a1610698366004613d57565b611417565b3480156106a957600080fd5b506104a16106b8366004613e02565b6114a5565b3480156106c957600080fd5b506104b46101f95481565b6104a16106e2366004613ebf565b6114f3565b3480156106f357600080fd5b506104a1610702366004613e02565b6115a9565b34801561071357600080fd5b5061020254610553906001600160a01b031681565b34801561073457600080fd5b506104b46101fe5481565b34801561074b57600080fd5b5061020454610553906001600160a01b031681565b34801561076c57600080fd5b5061055361077b366004613e8c565b6001600160a01b03908116600090815261016260205260409020541690565b3480156107a657600080fd5b506104a16107b5366004613e8c565b6115f7565b3480156107c657600080fd5b5060655460ff1661042a565b3480156107de57600080fd5b5061020354610553906001600160a01b031681565b3480156107ff57600080fd5b5061081361080e366004613e8c565b611601565b60405163ffffffff9091168152602001610436565b34801561083457600080fd5b506104b4610843366004613e8c565b6001600160a01b031660009081526033602052604090205490565b34801561086a57600080fd5b506104a1610879366004613e02565b611624565b34801561088a57600080fd5b506104b46000805160206144e383398151915281565b3480156108ac57600080fd5b506104b46108bb366004613e8c565b611672565b3480156108cc57600080fd5b506104a1611691565b3480156108e157600080fd5b506104a16108f0366004613e8c565b6119f5565b34801561090157600080fd5b506104a1611a5a565b34801561091657600080fd5b5061055361dead81565b34801561092c57600080fd5b506104a161093b366004613e02565b611a7b565b34801561094c57600080fd5b506104b461095b366004613e02565b611b1b565b34801561096c57600080fd5b506104b4611b78565b34801561098157600080fd5b5061042a610990366004613e5c565b611bd8565b3480156109a157600080fd5b50610454611c03565b3480156109b657600080fd5b506104a16109c5366004613e02565b611c12565b3480156109d657600080fd5b506104b46109e5366004613e8c565b611c60565b3480156109f657600080fd5b506104a1610a05366004613f83565b611ce9565b348015610a1657600080fd5b506104b4600081565b348015610a2b57600080fd5b5061042a610a3a366004613d57565b611dd0565b348015610a4b57600080fd5b506104a1610a5a366004613e02565b611e69565b348015610a6b57600080fd5b5061042a610a7a366004613d57565b611eb7565b348015610a8b57600080fd5b506104a1610a9a366004613e8c565b611ec4565b348015610aab57600080fd5b506104b46101f85481565b348015610ac257600080fd5b5061020054610553906001600160a01b031681565b348015610ae357600080fd5b506104a1610af2366004613fcc565b611f29565b348015610b0357600080fd5b5061042a610b12366004613e8c565b6102056020526000908152604090205460ff1681565b348015610b3457600080fd5b506104b46101fc5481565b348015610b4b57600080fd5b506104a1610b5a366004614026565b61205f565b348015610b6b57600080fd5b506104b47f9f2df0fed2c77648de5860a4cc508cd0818c85b8b8a1ab4ceeef8d981c8956a681565b348015610b9f57600080fd5b506104a1610bae366004613e5c565b6121a6565b348015610bbf57600080fd5b506104b4610bce366004614094565b6001600160a01b03918216600090815260346020908152604080832093909416825291909152205490565b348015610c0557600080fd5b506104b460008051602061449c83398151915281565b348015610c2757600080fd5b506104b460008051602061447c83398151915281565b348015610c4957600080fd5b506104a1610c58366004613e8c565b6121cc565b348015610c6957600080fd5b50610c7d610c783660046140c2565b612231565b60408051825163ffffffff1681526020928301516001600160e01b03169281019290925201610436565b348015610cb357600080fd5b506104b46101fd5481565b348015610cca57600080fd5b506104b47f189ab7a9244df0848122154315af71fe140f3db0fe014031783b0946b8c9d2e381565b348015610cfe57600080fd5b506104b46101fb5481565b348015610d1557600080fd5b506104b46101ff5481565b60006001600160e01b03198216637965db0b60e01b1480610d5157506301ffc9a760e01b6001600160e01b03198316145b92915050565b606060368054610d66906140f9565b80601f0160208091040260200160405190810160405280929190818152602001828054610d92906140f9565b8015610ddf5780601f10610db457610100808354040283529160200191610ddf565b820191906000526020600020905b815481529060010190602001808311610dc257829003601f168201915b5050505050905090565b6000610df63384846122b6565b50600192915050565b600054610100900460ff16610e1a5760005460ff1615610e1e565b303b155b610e865760405162461bcd60e51b815260206004820152602e60248201527f496e697469616c697a61626c653a20636f6e747261637420697320616c72656160448201526d191e481a5b9a5d1a585b1a5e995960921b60648201526084015b60405180910390fd5b600054610100900460ff16158015610ea8576000805461ffff19166101011790555b610eea6040518060400160405280600481526020016326a0aa2960e11b8152506040518060400160405280600481526020016326a0aa2960e11b8152506123da565b610ef2612413565b610efa61244c565b610f1f6040518060400160405280600481526020016326a0aa2960e11b81525061248b565b610f276124e6565b610f2f61250d565b610f3a600033612534565b610f5260008051602061449c83398151915233612534565b610f7133610f626012600a614228565b610f6c9086614237565b6125ba565b610f9b7f9f2df0fed2c77648de5860a4cc508cd0818c85b8b8a1ab4ceeef8d981c8956a633612534565b610fc57f189ab7a9244df0848122154315af71fe140f3db0fe014031783b0946b8c9d2e333612534565b610fdd60008051602061447c83398151915233612534565b610ff56000805160206144e383398151915233612534565b6101f88b90556101fb8890556101fa8990556101f98a90556101fc8790556101fd8690556101fe8590556101ff84905561020080546001600160a01b0319166001600160a01b0384161790558015611053576000805461ff00191690555b5050505050505050505050565b60008051602061447c83398151915261107981336125c4565b6101fa82905560405182907f8b4cee08fe80b0ce1bad0e2080ff9b3e2e7b270062106e6b0a2880fd3f53d29390600090a25050565b60006110bb848484612628565b6001600160a01b0384166000908152603460209081526040808320338452909152902054828110156111405760405162461bcd60e51b815260206004820152602860248201527f45524332303a207472616e7366657220616d6f756e74206578636565647320616044820152676c6c6f77616e636560c01b6064820152608401610e7d565b61114d85338584036122b6565b60019150505b9392505050565b6000806101fd546101fc54426111709190614256565b61117a919061426d565b9050806101fe5461118b9190614237565b6101fa5411156111b857806101fe546111a49190614237565b6101fa546111b29190614256565b91505090565b50506101ff5490565b5090565b600082815260c960205260409020600101546111e181336125c4565b6111eb8383612534565b505050565b60006111fa6127c7565b905090565b6001600160a01b038116331461126f5760405162461bcd60e51b815260206004820152602f60248201527f416363657373436f6e74726f6c3a2063616e206f6e6c792072656e6f756e636560448201526e103937b632b9903337b91039b2b63360891b6064820152608401610e7d565b6112798282612842565b5050565b306001600160a01b037f00000000000000000000000000000000000000000000000000000000000000001614156112c65760405162461bcd60e51b8152600401610e7d9061428f565b7f00000000000000000000000000000000000000000000000000000000000000006001600160a01b03166112f86128a9565b6001600160a01b03161461131e5760405162461bcd60e51b8152600401610e7d906142db565b611327816128d7565b6040805160008082526020820190925261134391839190612902565b50565b3360008181526034602090815260408083206001600160a01b03871684529091528120549091610df691859061137d908690614327565b6122b6565b60004382106113d35760405162461bcd60e51b815260206004820152601f60248201527f4552433230566f7465733a20626c6f636b206e6f7420796574206d696e6564006044820152606401610e7d565b6001600160a01b0383166000908152610163602052604090206111539083612a46565b60008051602061449c83398151915261140f81336125c4565b611343612b03565b7f9f2df0fed2c77648de5860a4cc508cd0818c85b8b8a1ab4ceeef8d981c8956a661144281336125c4565b6101f8548261145060355490565b61145a9190614327565b111561149b5760405162461bcd60e51b815260206004820152601060248201526f135a5b9d0810d85c0814995858da195960821b6044820152606401610e7d565b6111eb83836125ba565b60008051602061447c8339815191526114be81336125c4565b6101f982905560405182907f0cc835a386d9044fb6d115481e9b14839cad797bce63923da390fdc82a54738c90600090a25050565b306001600160a01b037f000000000000000000000000000000000000000000000000000000000000000016141561153c5760405162461bcd60e51b8152600401610e7d9061428f565b7f00000000000000000000000000000000000000000000000000000000000000006001600160a01b031661156e6128a9565b6001600160a01b0316146115945760405162461bcd60e51b8152600401610e7d906142db565b61159d826128d7565b61127982826001612902565b60008051602061447c8339815191526115c281336125c4565b6101fd82905560405182907f37e88bc197690a3ee850991f844da2a4359c7289d536d440883a0b376ffb733990600090a25050565b6113433382612b96565b6001600160a01b03811660009081526101636020526040812054610d5190612c17565b60008051602061447c83398151915261163d81336125c4565b6101fb82905560405182907f4bf2c7c9b6b8b3fd674738e5d8cc09c58fb4a2d9ee9b75cdb548a2142db0b6a990600090a25050565b6001600160a01b038116600090815261012f6020526040812054610d51565b6000805160206144e38339815191526116aa81336125c4565b610200546040805163c45a015560e01b815290516001600160a01b0390921691600091839163c45a015591600480820192602092909190829003018186803b1580156116f557600080fd5b505afa158015611709573d6000803e3d6000fd5b505050506040513d601f19601f8201168201806040525081019061172d919061433f565b6001600160a01b031663e6a4390530846001600160a01b031663ad5c46486040518163ffffffff1660e01b815260040160206040518083038186803b15801561177557600080fd5b505afa158015611789573d6000803e3d6000fd5b505050506040513d601f19601f820116820180604052508101906117ad919061433f565b6040516001600160e01b031960e085901b1681526001600160a01b0392831660048201529116602482015260440160206040518083038186803b1580156117f357600080fd5b505afa158015611807573d6000803e3d6000fd5b505050506040513d601f19601f8201168201806040525081019061182b919061433f565b90506001600160a01b0381166119d257816001600160a01b031663c45a01556040518163ffffffff1660e01b815260040160206040518083038186803b15801561187457600080fd5b505afa158015611888573d6000803e3d6000fd5b505050506040513d601f19601f820116820180604052508101906118ac919061433f565b6001600160a01b031663c9c6539630846001600160a01b031663ad5c46486040518163ffffffff1660e01b815260040160206040518083038186803b1580156118f457600080fd5b505afa158015611908573d6000803e3d6000fd5b505050506040513d601f19601f8201168201806040525081019061192c919061433f565b6040516001600160e01b031960e085901b1681526001600160a01b03928316600482015291166024820152604401602060405180830381600087803b15801561197457600080fd5b505af1158015611988573d6000803e3d6000fd5b505050506040513d601f19601f820116820180604052508101906119ac919061433f565b61020180546001600160a01b0319166001600160a01b0392909216919091179055505050565b61020180546001600160a01b0383166001600160a01b0319909116179055505050565b6000805160206144e3833981519152611a0e81336125c4565b61020380546001600160a01b0319166001600160a01b0384169081179091556040517f6605bfda68901537ab9fb92ab0c70a849e679d531ec9b4cc9cdba597ae1b1a4d90600090a25050565b60008051602061449c833981519152611a7381336125c4565b611343612c7c565b60008051602061447c833981519152611a9481336125c4565b603554821015611ae65760405162461bcd60e51b815260206004820152601760248201527f496e76616c6964206d6178206d696e7420737570706c790000000000000000006044820152606401610e7d565b6101f882905560405182907f7389fbb7d201a8a8a814ea44ab5a14475781c851b70a8e9336e8a35971713bce90600090a25050565b6000438210611b6c5760405162461bcd60e51b815260206004820152601f60248201527f4552433230566f7465733a20626c6f636b206e6f7420796574206d696e6564006044820152606401610e7d565b610d5161016483612a46565b6000806101fd546101fc5442611b8e9190614256565b611b98919061426d565b9050806101fe54611ba99190614237565b6101f9541115611bd057806101fe54611bc29190614237565b6101f9546111b29190614256565b600091505090565b600091825260c9602090815260408084206001600160a01b0393909316845291905290205460ff1690565b606060378054610d66906140f9565b60008051602061447c833981519152611c2b81336125c4565b6101ff82905560405182907fff9ebec9faf20ca2bb889f87345e36fb792bcb0fe387b16c333c13131a80593d90600090a25050565b6001600160a01b038116600090815261016360205260408120548015611cd6576001600160a01b038316600090815261016360205260409020611ca4600183614256565b81548110611cb457611cb461435c565b60009182526020909120015464010000000090046001600160e01b0316611cd9565b60005b6001600160e01b03169392505050565b6000805160206144e3833981519152611d0281336125c4565b6001600160a01b0383166000908152610205602052604090205460ff1615158215151415611d6b5760405162461bcd60e51b8152602060048201526016602482015275416c726561647920696e2073616d652073746174757360501b6044820152606401610e7d565b6001600160a01b03831660008181526102056020908152604091829020805460ff19168615159081179091558251938452908301527fe4a86a9978f72cdef1564e939c0efe41afd86b7674f4e2d640ea47446ade92fe910160405180910390a1505050565b3360009081526034602090815260408083206001600160a01b038616845290915281205482811015611e525760405162461bcd60e51b815260206004820152602560248201527f45524332303a2064656372656173656420616c6c6f77616e63652062656c6f77604482015264207a65726f60d81b6064820152608401610e7d565b611e5f33858584036122b6565b5060019392505050565b60008051602061447c833981519152611e8281336125c4565b6101fe82905560405182907f45bbe71fbf8703a11abe42a74b304da0b1af9203d2ca4a27c7e5a390a6ff513590600090a25050565b6000610df6338484612628565b6000805160206144e3833981519152611edd81336125c4565b61020480546001600160a01b0319166001600160a01b0384169081179091556040517ff4e0d9ac4b6ebf6cff632447dba65342b7a27b284077619cdcf76ea14994785890600090a25050565b83421115611f795760405162461bcd60e51b815260206004820152601d60248201527f4552433230566f7465733a207369676e617475726520657870697265640000006044820152606401610e7d565b604080517fe48329057bfd03d55e49b547132e39cffd9c1820ad7b9d4c5307691425d15adf60208201526001600160a01b038816918101919091526060810186905260808101859052600090611ff390611feb9060a00160405160208183030381529060405280519060200120612cf7565b858585612d45565b9050611ffe81612d6d565b861461204c5760405162461bcd60e51b815260206004820152601960248201527f4552433230566f7465733a20696e76616c6964206e6f6e6365000000000000006044820152606401610e7d565b6120568188612b96565b50505050505050565b834211156120af5760405162461bcd60e51b815260206004820152601d60248201527f45524332305065726d69743a206578706972656420646561646c696e650000006044820152606401610e7d565b6000610130548888886120c18c612d6d565b6040805160208101969096526001600160a01b0394851690860152929091166060840152608083015260a082015260c0810186905260e001604051602081830303815290604052805190602001209050600061211c82612cf7565b9050600061212c82878787612d45565b9050896001600160a01b0316816001600160a01b03161461218f5760405162461bcd60e51b815260206004820152601e60248201527f45524332305065726d69743a20696e76616c6964207369676e617475726500006044820152606401610e7d565b61219a8a8a8a6122b6565b50505050505050505050565b600082815260c960205260409020600101546121c281336125c4565b6111eb8383612842565b6000805160206144e38339815191526121e581336125c4565b61020280546001600160a01b0319166001600160a01b0384169081179091556040517f041d3269a71768d3cebc09c7b375d1acd81678851cfd08e411b6af7973a135d690600090a25050565b60408051808201909152600080825260208201526001600160a01b038316600090815261016360205260409020805463ffffffff84169081106122765761227661435c565b60009182526020918290206040805180820190915291015463ffffffff8116825264010000000090046001600160e01b0316918101919091529392505050565b6001600160a01b0383166123185760405162461bcd60e51b8152602060048201526024808201527f45524332303a20617070726f76652066726f6d20746865207a65726f206164646044820152637265737360e01b6064820152608401610e7d565b6001600160a01b0382166123795760405162461bcd60e51b815260206004820152602260248201527f45524332303a20617070726f766520746f20746865207a65726f206164647265604482015261737360f01b6064820152608401610e7d565b6001600160a01b0383811660008181526034602090815260408083209487168084529482529182902085905590518481527f8c5be1e5ebec7d5bd14f71427d1e84f3dd0314c0f7b2291e5b200ac8c7c3b925910160405180910390a3505050565b600054610100900460ff166124015760405162461bcd60e51b8152600401610e7d90614372565b6124096124e6565b6112798282612d96565b600054610100900460ff1661243a5760405162461bcd60e51b8152600401610e7d90614372565b6124426124e6565b61244a612de4565b565b600054610100900460ff166124735760405162461bcd60e51b8152600401610e7d90614372565b61247b6124e6565b6124836124e6565b61244a6124e6565b600054610100900460ff166124b25760405162461bcd60e51b8152600401610e7d90614372565b6124ba6124e6565b6124dd81604051806040016040528060018152602001603160f81b815250612e17565b61134381612e58565b600054610100900460ff1661244a5760405162461bcd60e51b8152600401610e7d90614372565b600054610100900460ff1661247b5760405162461bcd60e51b8152600401610e7d90614372565b61253e8282611bd8565b61127957600082815260c9602090815260408083206001600160a01b03851684529091529020805460ff191660011790556125763390565b6001600160a01b0316816001600160a01b0316837f2f8788117e7eff1d82e926ec794901d17c78024a50270940304540a733656f0d60405160405180910390a45050565b6112798282612ea7565b6125ce8282611bd8565b611279576125e6816001600160a01b03166014612f32565b6125f1836020612f32565b6040516020016126029291906143bd565b60408051601f198184030181529082905262461bcd60e51b8252610e7d91600401613d0f565b6102015460009081906001600160a01b03858116911614806126585750610202546001600160a01b038581169116145b156126a15761271061266861115a565b6126729085614237565b61267c919061426d565b91506127106101fb54846126909190614237565b61269a919061426d565b9050612711565b610201546001600160a01b03868116911614806126cc5750610202546001600160a01b038681169116145b15612711576127106126dc611b78565b6126e69085614237565b6126f0919061426d565b91506127106101fb54846127049190614237565b61270e919061426d565b90505b6001600160a01b0385166000908152610205602052604090205460ff1615156001148061275c57506001600160a01b0384166000908152610205602052604090205460ff1615156001145b15612768575060009050805b60008211806127775750600081115b156127a257610203546127959086906001600160a01b0316846130ce565b6127a28561dead836130ce565b6127c085856127b18486614327565b6127bb9087614256565b6130ce565b5050505050565b60006111fa7f8b73c3c69bb8fe3d512ecc4cf759cc79239f7b179b0ffacaa9a75d522b39400f6127f660fb5490565b60fc546040805160208101859052908101839052606081018290524660808201523060a082015260009060c0016040516020818303038152906040528051906020012090509392505050565b61284c8282611bd8565b1561127957600082815260c9602090815260408083206001600160a01b0385168085529252808320805460ff1916905551339285917ff6391f5c32d9c69d2a47ea670b442974b53935d1edc7fd64eb21e047a839171b9190a45050565b7f360894a13ba1a3210667c828492db98dca3e2076cc3735a920a3ca505d382bbc546001600160a01b031690565b7f189ab7a9244df0848122154315af71fe140f3db0fe014031783b0946b8c9d2e361127981336125c4565b600061290c6128a9565b9050612917846132ad565b6000835111806129245750815b15612935576129338484613352565b505b7f4910fdfa16fed3260ed0e7147f7cc6da11a60208b5b9406d12a635614ffd9143805460ff166127c057805460ff191660011781556040516001600160a01b03831660248201526129b490869060440160408051601f198184030181529190526020810180516001600160e01b0316631b2ce7f360e11b179052613352565b50805460ff191681556129c56128a9565b6001600160a01b0316826001600160a01b031614612a3d5760405162461bcd60e51b815260206004820152602f60248201527f45524331393637557067726164653a207570677261646520627265616b73206660448201526e75727468657220757067726164657360881b6064820152608401610e7d565b6127c08561343d565b8154600090815b81811015612aaa576000612a61828461347d565b905084868281548110612a7657612a7661435c565b60009182526020909120015463ffffffff161115612a9657809250612aa4565b612aa1816001614327565b91505b50612a4d565b8115612aee5784612abc600184614256565b81548110612acc57612acc61435c565b60009182526020909120015464010000000090046001600160e01b0316612af1565b60005b6001600160e01b031695945050505050565b60655460ff16612b4c5760405162461bcd60e51b815260206004820152601460248201527314185d5cd8589b194e881b9bdd081c185d5cd95960621b6044820152606401610e7d565b6065805460ff191690557f5db9ee0a495bf2e6ff9c91a7834c1ba4fdd244a5e8aa4e537bd38aeae4b073aa335b6040516001600160a01b03909116815260200160405180910390a1565b6001600160a01b0382811660008181526101626020818152604080842080546033845282862054949093528787166001600160a01b03198416811790915590519190951694919391928592917f3134e8a2e6d97e929a7e54011ea5485d7d196dd5f0ba4d4ef95803e8e3fc257f9190a4612c11828483613498565b50505050565b600063ffffffff8211156111c15760405162461bcd60e51b815260206004820152602660248201527f53616665436173743a2076616c756520646f65736e27742066697420696e203360448201526532206269747360d01b6064820152608401610e7d565b60655460ff1615612cc25760405162461bcd60e51b815260206004820152601060248201526f14185d5cd8589b194e881c185d5cd95960821b6044820152606401610e7d565b6065805460ff191660011790557f62e78cea01bee320cd4e420270b5ea74000d11b0c9f74754ebdbfc544b05a258612b793390565b6000610d51612d046127c7565b8360405161190160f01b6020820152602281018390526042810182905260009060620160405160208183030381529060405280519060200120905092915050565b6000806000612d56878787876135d7565b91509150612d63816136c4565b5095945050505050565b6001600160a01b038116600090815261012f602052604090208054600181018255905b50919050565b600054610100900460ff16612dbd5760405162461bcd60e51b8152600401610e7d90614372565b8151612dd0906036906020850190613c29565b5080516111eb906037906020840190613c29565b600054610100900460ff16612e0b5760405162461bcd60e51b8152600401610e7d90614372565b6065805460ff19169055565b600054610100900460ff16612e3e5760405162461bcd60e51b8152600401610e7d90614372565b81516020928301208151919092012060fb9190915560fc55565b600054610100900460ff16612e7f5760405162461bcd60e51b8152600401610e7d90614372565b507f6e71edae12b1b97f4d1f60370fef10105fa2faae0126114a169c64845d6126c961013055565b612eb1828261387f565b6035546001600160e01b031015612f235760405162461bcd60e51b815260206004820152603060248201527f4552433230566f7465733a20746f74616c20737570706c79207269736b73206f60448201526f766572666c6f77696e6720766f74657360801b6064820152608401610e7d565b612c116101646139728361397e565b60606000612f41836002614237565b612f4c906002614327565b67ffffffffffffffff811115612f6457612f64613ea9565b6040519080825280601f01601f191660200182016040528015612f8e576020820181803683370190505b509050600360fc1b81600081518110612fa957612fa961435c565b60200101906001600160f81b031916908160001a905350600f60fb1b81600181518110612fd857612fd861435c565b60200101906001600160f81b031916908160001a9053506000612ffc846002614237565b613007906001614327565b90505b600181111561307f576f181899199a1a9b1b9c1cb0b131b232b360811b85600f166010811061303b5761303b61435c565b1a60f81b8282815181106130515761305161435c565b60200101906001600160f81b031916908160001a90535060049490941c9361307881614432565b905061300a565b5083156111535760405162461bcd60e51b815260206004820181905260248201527f537472696e67733a20686578206c656e67746820696e73756666696369656e746044820152606401610e7d565b6001600160a01b0383166131325760405162461bcd60e51b815260206004820152602560248201527f45524332303a207472616e736665722066726f6d20746865207a65726f206164604482015264647265737360d81b6064820152608401610e7d565b6001600160a01b0382166131945760405162461bcd60e51b815260206004820152602360248201527f45524332303a207472616e7366657220746f20746865207a65726f206164647260448201526265737360e81b6064820152608401610e7d565b61319f838383613af7565b6001600160a01b038316600090815260336020526040902054818110156132175760405162461bcd60e51b815260206004820152602660248201527f45524332303a207472616e7366657220616d6f756e7420657863656564732062604482015265616c616e636560d01b6064820152608401610e7d565b6001600160a01b0380851660009081526033602052604080822085850390559185168152908120805484929061324e908490614327565b92505081905550826001600160a01b0316846001600160a01b03167fddf252ad1be2c89b69c2b068fc378daa952ba7f163c4a11628f55a4df523b3ef8460405161329a91815260200190565b60405180910390a3612c11848484613b3d565b803b6133115760405162461bcd60e51b815260206004820152602d60248201527f455243313936373a206e657720696d706c656d656e746174696f6e206973206e60448201526c1bdd08184818dbdb9d1c9858dd609a1b6064820152608401610e7d565b7f360894a13ba1a3210667c828492db98dca3e2076cc3735a920a3ca505d382bbc80546001600160a01b0319166001600160a01b0392909216919091179055565b6060823b6133b15760405162461bcd60e51b815260206004820152602660248201527f416464726573733a2064656c65676174652063616c6c20746f206e6f6e2d636f6044820152651b9d1c9858dd60d21b6064820152608401610e7d565b600080846001600160a01b0316846040516133cc9190614449565b600060405180830381855af49150503d8060008114613407576040519150601f19603f3d011682016040523d82523d6000602084013e61340c565b606091505b509150915061343482826040518060600160405280602781526020016144bc60279139613b48565b95945050505050565b613446816132ad565b6040516001600160a01b038216907fbc7cd75a20ee27fd9adebab32041f755214dbc6bffa90cc0225b39da2e5c2d3b90600090a250565b600061348c600284841861426d565b61115390848416614327565b816001600160a01b0316836001600160a01b0316141580156134ba5750600081115b156111eb576001600160a01b03831615613549576001600160a01b03831660009081526101636020526040812081906134f690613b818561397e565b91509150846001600160a01b03167fdec2bacdd2f05b59de34da9b523dff8be42e5e38e818c82fdb0bae774387a724838360405161353e929190918252602082015260400190565b60405180910390a250505b6001600160a01b038216156111eb576001600160a01b0382166000908152610163602052604081208190613580906139728561397e565b91509150836001600160a01b03167fdec2bacdd2f05b59de34da9b523dff8be42e5e38e818c82fdb0bae774387a72483836040516135c8929190918252602082015260400190565b60405180910390a25050505050565b6000807f7fffffffffffffffffffffffffffffff5d576e7357a4501ddfe92f46681b20a083111561360e57506000905060036136bb565b8460ff16601b1415801561362657508460ff16601c14155b1561363757506000905060046136bb565b6040805160008082526020820180845289905260ff881692820192909252606081018690526080810185905260019060a0016020604051602081039080840390855afa15801561368b573d6000803e3d6000fd5b5050604051601f1901519150506001600160a01b0381166136b4576000600192509250506136bb565b9150600090505b94509492505050565b60008160048111156136d8576136d8614465565b14156136e15750565b60018160048111156136f5576136f5614465565b14156137435760405162461bcd60e51b815260206004820152601860248201527f45434453413a20696e76616c6964207369676e617475726500000000000000006044820152606401610e7d565b600281600481111561375757613757614465565b14156137a55760405162461bcd60e51b815260206004820152601f60248201527f45434453413a20696e76616c6964207369676e6174757265206c656e677468006044820152606401610e7d565b60038160048111156137b9576137b9614465565b14156138125760405162461bcd60e51b815260206004820152602260248201527f45434453413a20696e76616c6964207369676e6174757265202773272076616c604482015261756560f01b6064820152608401610e7d565b600481600481111561382657613826614465565b14156113435760405162461bcd60e51b815260206004820152602260248201527f45434453413a20696e76616c6964207369676e6174757265202776272076616c604482015261756560f01b6064820152608401610e7d565b6001600160a01b0382166138d55760405162461bcd60e51b815260206004820152601f60248201527f45524332303a206d696e7420746f20746865207a65726f2061646472657373006044820152606401610e7d565b6138e160008383613af7565b80603560008282546138f39190614327565b90915550506001600160a01b03821660009081526033602052604081208054839290613920908490614327565b90915550506040518181526001600160a01b038316906000907fddf252ad1be2c89b69c2b068fc378daa952ba7f163c4a11628f55a4df523b3ef9060200160405180910390a361127960008383613b3d565b60006111538284614327565b8254600090819080156139c95785613997600183614256565b815481106139a7576139a761435c565b60009182526020909120015464010000000090046001600160e01b03166139cc565b60005b6001600160e01b031692506139e583858763ffffffff16565b9150600081118015613a23575043866139ff600184614256565b81548110613a0f57613a0f61435c565b60009182526020909120015463ffffffff16145b15613a8357613a3182613b8d565b86613a3d600184614256565b81548110613a4d57613a4d61435c565b9060005260206000200160000160046101000a8154816001600160e01b0302191690836001600160e01b03160217905550613aee565b856040518060400160405280613a9843612c17565b63ffffffff168152602001613aac85613b8d565b6001600160e01b0390811690915282546001810184556000938452602093849020835194909301519091166401000000000263ffffffff909316929092179101555b50935093915050565b60655460ff16156111eb5760405162461bcd60e51b815260206004820152601060248201526f14185d5cd8589b194e881c185d5cd95960821b6044820152606401610e7d565b6111eb838383613bf6565b60608315613b57575081611153565b825115613b675782518084602001fd5b8160405162461bcd60e51b8152600401610e7d9190613d0f565b60006111538284614256565b60006001600160e01b038211156111c15760405162461bcd60e51b815260206004820152602760248201527f53616665436173743a2076616c756520646f65736e27742066697420696e20326044820152663234206269747360c81b6064820152608401610e7d565b6001600160a01b03838116600090815261016260205260408082205485841683529120546111eb92918216911683613498565b828054613c35906140f9565b90600052602060002090601f016020900481019282613c575760008555613c9d565b82601f10613c7057805160ff1916838001178555613c9d565b82800160010185558215613c9d579182015b82811115613c9d578251825591602001919060010190613c82565b506111c19291505b808211156111c15760008155600101613ca5565b600060208284031215613ccb57600080fd5b81356001600160e01b03198116811461115357600080fd5b60005b83811015613cfe578181015183820152602001613ce6565b83811115612c115750506000910152565b6020815260008251806020840152613d2e816040850160208701613ce3565b601f01601f19169190910160400192915050565b6001600160a01b038116811461134357600080fd5b60008060408385031215613d6a57600080fd5b8235613d7581613d42565b946020939093013593505050565b6000806000806000806000806000806101408b8d031215613da357600080fd5b8a35995060208b0135985060408b0135975060608b0135965060808b0135955060a08b0135945060c08b0135935060e08b013592506101008b013591506101208b0135613def81613d42565b809150509295989b9194979a5092959850565b600060208284031215613e1457600080fd5b5035919050565b600080600060608486031215613e3057600080fd5b8335613e3b81613d42565b92506020840135613e4b81613d42565b929592945050506040919091013590565b60008060408385031215613e6f57600080fd5b823591506020830135613e8181613d42565b809150509250929050565b600060208284031215613e9e57600080fd5b813561115381613d42565b634e487b7160e01b600052604160045260246000fd5b60008060408385031215613ed257600080fd5b8235613edd81613d42565b9150602083013567ffffffffffffffff80821115613efa57600080fd5b818501915085601f830112613f0e57600080fd5b813581811115613f2057613f20613ea9565b604051601f8201601f19908116603f01168101908382118183101715613f4857613f48613ea9565b81604052828152886020848701011115613f6157600080fd5b8260208601602083013760006020848301015280955050505050509250929050565b60008060408385031215613f9657600080fd5b8235613fa181613d42565b915060208301358015158114613e8157600080fd5b803560ff81168114613fc757600080fd5b919050565b60008060008060008060c08789031215613fe557600080fd5b8635613ff081613d42565b9550602087013594506040870135935061400c60608801613fb6565b92506080870135915060a087013590509295509295509295565b600080600080600080600060e0888a03121561404157600080fd5b873561404c81613d42565b9650602088013561405c81613d42565b9550604088013594506060880135935061407860808901613fb6565b925060a0880135915060c0880135905092959891949750929550565b600080604083850312156140a757600080fd5b82356140b281613d42565b91506020830135613e8181613d42565b600080604083850312156140d557600080fd5b82356140e081613d42565b9150602083013563ffffffff81168114613e8157600080fd5b600181811c9082168061410d57607f821691505b60208210811415612d9057634e487b7160e01b600052602260045260246000fd5b634e487b7160e01b600052601160045260246000fd5b600181815b8085111561417f5781600019048211156141655761416561412e565b8085161561417257918102915b93841c9390800290614149565b509250929050565b60008261419657506001610d51565b816141a357506000610d51565b81600181146141b957600281146141c3576141df565b6001915050610d51565b60ff8411156141d4576141d461412e565b50506001821b610d51565b5060208310610133831016604e8410600b8410161715614202575081810a610d51565b61420c8383614144565b80600019048211156142205761422061412e565b029392505050565b600061115360ff841683614187565b60008160001904831182151516156142515761425161412e565b500290565b6000828210156142685761426861412e565b500390565b60008261428a57634e487b7160e01b600052601260045260246000fd5b500490565b6020808252602c908201527f46756e6374696f6e206d7573742062652063616c6c6564207468726f7567682060408201526b19195b1959d85d1958d85b1b60a21b606082015260800190565b6020808252602c908201527f46756e6374696f6e206d7573742062652063616c6c6564207468726f7567682060408201526b6163746976652070726f787960a01b606082015260800190565b6000821982111561433a5761433a61412e565b500190565b60006020828403121561435157600080fd5b815161115381613d42565b634e487b7160e01b600052603260045260246000fd5b6020808252602b908201527f496e697469616c697a61626c653a20636f6e7472616374206973206e6f74206960408201526a6e697469616c697a696e6760a81b606082015260800190565b7f416363657373436f6e74726f6c3a206163636f756e74200000000000000000008152600083516143f5816017850160208801613ce3565b7001034b99036b4b9b9b4b733903937b6329607d1b6017918401918201528351614426816028840160208801613ce3565b01602801949350505050565b6000816144415761444161412e565b506000190190565b6000825161445b818460208701613ce3565b9190910192915050565b634e487b7160e01b600052602160045260246000fdfe3b5d4cc60d3ec3516ee8ae083bd60934f6eb2a6c54b1229985c41bfb092b260365d7a28e3265b37a6474929f336521b332c1681b933f6cb9f3376673440d862a416464726573733a206c6f772d6c6576656c2064656c65676174652063616c6c206661696c6564a49807205ce4d355092ef5a8a18f56e8913cf4a201fbe287825b095693c21775a2646970667358221220a8e396f316c8ddbbbfbd77f1741a71aa5f5d7b506e0d7b777d4810bf7910481764736f6c63430008090033",
  "linkReferences": {},
  "deployedLinkReferences": {}
}