{
  "_format": "hh-sol-artifact-1",
  "contractName": "MasterChef",
  "sourceName": "contracts/Staking/MasterChef.sol",
  "abi": [
    {
      "anonymous": false,
      "inputs": [
        {
          "indexed": false,
          "internalType": "address",
          "name": "previousAdmin",
          "type": "address"
        },
        {
          "indexed": false,
          "internalType": "address",
          "name": "newAdmin",
          "type": "address"
        }
      ],
      "name": "AdminChanged",
      "type": "event"
    },
    {
      "anonymous": false,
      "inputs": [
        {
          "indexed": true,
          "internalType": "address",
          "name": "beacon",
          "type": "address"
        }
      ],
      "name": "BeaconUpgraded",
      "type": "event"
    },
    {
      "anonymous": false,
      "inputs": [
        {
          "indexed": true,
          "internalType": "address",
          "name": "user",
          "type": "address"
        },
        {
          "indexed": true,
          "internalType": "uint256",
          "name": "pid",
          "type": "uint256"
        },
        {
          "indexed": false,
          "internalType": "uint256",
          "name": "amount",
          "type": "uint256"
        }
      ],
      "name": "Deposit",
      "type": "event"
    },
    {
      "anonymous": false,
      "inputs": [
        {
          "indexed": true,
          "internalType": "address",
          "name": "user",
          "type": "address"
        },
        {
          "indexed": true,
          "internalType": "uint256",
          "name": "pid",
          "type": "uint256"
        },
        {
          "indexed": false,
          "internalType": "uint256",
          "name": "amount",
          "type": "uint256"
        }
      ],
      "name": "EmergencyWithdraw",
      "type": "event"
    },
    {
      "anonymous": false,
      "inputs": [
        {
          "indexed": true,
          "internalType": "address",
          "name": "previousOwner",
          "type": "address"
        },
        {
          "indexed": true,
          "internalType": "address",
          "name": "newOwner",
          "type": "address"
        }
      ],
      "name": "OwnershipTransferred",
      "type": "event"
    },
    {
      "anonymous": false,
      "inputs": [
        {
          "indexed": true,
          "internalType": "contract IERC721",
          "name": "_erc721",
          "type": "address"
        }
      ],
      "name": "SetERC721ContractAddress",
      "type": "event"
    },
    {
      "anonymous": false,
      "inputs": [
        {
          "indexed": true,
          "internalType": "contract IUniswapV3PositionUtility",
          "name": "_uniswapUtility",
          "type": "address"
        }
      ],
      "name": "SetUtilityContractAddress",
      "type": "event"
    },
    {
      "anonymous": false,
      "inputs": [
        {
          "indexed": true,
          "internalType": "address",
          "name": "implementation",
          "type": "address"
        }
      ],
      "name": "Upgraded",
      "type": "event"
    },
    {
      "anonymous": false,
      "inputs": [
        {
          "indexed": true,
          "internalType": "address",
          "name": "user",
          "type": "address"
        },
        {
          "indexed": true,
          "internalType": "uint256",
          "name": "pid",
          "type": "uint256"
        },
        {
          "indexed": false,
          "internalType": "uint256",
          "name": "amount",
          "type": "uint256"
        }
      ],
      "name": "Withdraw",
      "type": "event"
    },
    {
      "anonymous": false,
      "inputs": [
        {
          "indexed": true,
          "internalType": "uint256",
          "name": "_bonusEndBlock",
          "type": "uint256"
        }
      ],
      "name": "updateBonusEndBlock",
      "type": "event"
    },
    {
      "anonymous": false,
      "inputs": [
        {
          "indexed": true,
          "internalType": "uint256",
          "name": "_MATRPerBlock",
          "type": "uint256"
        }
      ],
      "name": "updateMATRPerBlock",
      "type": "event"
    },
    {
      "inputs": [],
      "name": "BONUS_MULTIPLIER",
      "outputs": [
        {
          "internalType": "uint256",
          "name": "",
          "type": "uint256"
        }
      ],
      "stateMutability": "view",
      "type": "function"
    },
    {
      "inputs": [],
      "name": "MATR",
      "outputs": [
        {
          "internalType": "contract IERC20Upgradeable",
          "name": "",
          "type": "address"
        }
      ],
      "stateMutability": "view",
      "type": "function"
    },
    {
      "inputs": [],
      "name": "MATRPerBlock",
      "outputs": [
        {
          "internalType": "uint256",
          "name": "",
          "type": "uint256"
        }
      ],
      "stateMutability": "view",
      "type": "function"
    },
    {
      "inputs": [
        {
          "internalType": "uint256",
          "name": "_allocPoint",
          "type": "uint256"
        },
        {
          "internalType": "contract IERC20Upgradeable",
          "name": "_lpToken",
          "type": "address"
        },
        {
          "internalType": "contract IERC721",
          "name": "_erc721",
          "type": "address"
        },
        {
          "internalType": "bool",
          "name": "_withUpdate",
          "type": "bool"
        }
      ],
      "name": "add",
      "outputs": [],
      "stateMutability": "nonpayable",
      "type": "function"
    },
    {
      "inputs": [],
      "name": "bonusEndBlock",
      "outputs": [
        {
          "internalType": "uint256",
          "name": "",
          "type": "uint256"
        }
      ],
      "stateMutability": "view",
      "type": "function"
    },
    {
      "inputs": [
        {
          "internalType": "uint256",
          "name": "_pid",
          "type": "uint256"
        },
        {
          "internalType": "uint256",
          "name": "_amount",
          "type": "uint256"
        },
        {
          "internalType": "uint256",
          "name": "_tokenId",
          "type": "uint256"
        },
        {
          "internalType": "bool",
          "name": "_isERC721",
          "type": "bool"
        }
      ],
      "name": "deposit",
      "outputs": [],
      "stateMutability": "nonpayable",
      "type": "function"
    },
    {
      "inputs": [],
      "name": "erc721Token",
      "outputs": [
        {
          "internalType": "contract IERC721",
          "name": "",
          "type": "address"
        }
      ],
      "stateMutability": "view",
      "type": "function"
    },
    {
      "inputs": [
        {
          "internalType": "uint256",
          "name": "_from",
          "type": "uint256"
        },
        {
          "internalType": "uint256",
          "name": "_to",
          "type": "uint256"
        }
      ],
      "name": "getMultiplier",
      "outputs": [
        {
          "internalType": "uint256",
          "name": "_diff",
          "type": "uint256"
        }
      ],
      "stateMutability": "view",
      "type": "function"
    },
    {
      "inputs": [
        {
          "internalType": "contract IERC20Upgradeable",
          "name": "_MATR",
          "type": "address"
        },
        {
          "internalType": "uint256",
          "name": "_MATRPerBlock",
          "type": "uint256"
        },
        {
          "internalType": "uint256",
          "name": "_startBlock",
          "type": "uint256"
        },
        {
          "internalType": "uint256",
          "name": "_bonusEndBlock",
          "type": "uint256"
        }
      ],
      "name": "initialize",
      "outputs": [],
      "stateMutability": "nonpayable",
      "type": "function"
    },
    {
      "inputs": [],
      "name": "massUpdatePools",
      "outputs": [],
      "stateMutability": "nonpayable",
      "type": "function"
    },
    {
      "inputs": [
        {
          "internalType": "address",
          "name": "",
          "type": "address"
        },
        {
          "internalType": "address",
          "name": "",
          "type": "address"
        },
        {
          "internalType": "uint256",
          "name": "",
          "type": "uint256"
        },
        {
          "internalType": "bytes",
          "name": "",
          "type": "bytes"
        }
      ],
      "name": "onERC721Received",
      "outputs": [
        {
          "internalType": "bytes4",
          "name": "",
          "type": "bytes4"
        }
      ],
      "stateMutability": "nonpayable",
      "type": "function"
    },
    {
      "inputs": [],
      "name": "owner",
      "outputs": [
        {
          "internalType": "address",
          "name": "",
          "type": "address"
        }
      ],
      "stateMutability": "view",
      "type": "function"
    },
    {
      "inputs": [
        {
          "internalType": "uint256",
          "name": "_pid",
          "type": "uint256"
        },
        {
          "internalType": "address",
          "name": "_user",
          "type": "address"
        }
      ],
      "name": "pendingMATR",
      "outputs": [
        {
          "internalType": "uint256",
          "name": "",
          "type": "uint256"
        }
      ],
      "stateMutability": "view",
      "type": "function"
    },
    {
      "inputs": [
        {
          "internalType": "uint256",
          "name": "",
          "type": "uint256"
        }
      ],
      "name": "poolInfo",
      "outputs": [
        {
          "internalType": "contract IERC20Upgradeable",
          "name": "lpToken",
          "type": "address"
        },
        {
          "internalType": "address",
          "name": "v2LpToken",
          "type": "address"
        },
        {
          "internalType": "uint256",
          "name": "allocPoint",
          "type": "uint256"
        },
        {
          "internalType": "uint256",
          "name": "lastRewardBlock",
          "type": "uint256"
        },
        {
          "internalType": "uint256",
          "name": "accMATRPerShare",
          "type": "uint256"
        }
      ],
      "stateMutability": "view",
      "type": "function"
    },
    {
      "inputs": [],
      "name": "poolLength",
      "outputs": [
        {
          "internalType": "uint256",
          "name": "",
          "type": "uint256"
        }
      ],
      "stateMutability": "view",
      "type": "function"
    },
    {
      "inputs": [],
      "name": "renounceOwnership",
      "outputs": [],
      "stateMutability": "nonpayable",
      "type": "function"
    },
    {
      "inputs": [
        {
          "internalType": "uint256",
          "name": "_pid",
          "type": "uint256"
        },
        {
          "internalType": "uint256",
          "name": "_allocPoint",
          "type": "uint256"
        },
        {
          "internalType": "bool",
          "name": "_withUpdate",
          "type": "bool"
        }
      ],
      "name": "set",
      "outputs": [],
      "stateMutability": "nonpayable",
      "type": "function"
    },
    {
      "inputs": [
        {
          "internalType": "uint256",
          "name": "_bonusEndBlock",
          "type": "uint256"
        }
      ],
      "name": "setBonusEndBlock",
      "outputs": [],
      "stateMutability": "nonpayable",
      "type": "function"
    },
    {
      "inputs": [
        {
          "internalType": "contract IERC721",
          "name": "_erc721",
          "type": "address"
        }
      ],
      "name": "setERC721ContractAddress",
      "outputs": [],
      "stateMutability": "nonpayable",
      "type": "function"
    },
    {
      "inputs": [
        {
          "internalType": "uint256",
          "name": "_MATRPerBlock",
          "type": "uint256"
        }
      ],
      "name": "setMATRPerBlock",
      "outputs": [],
      "stateMutability": "nonpayable",
      "type": "function"
    },
    {
      "inputs": [
        {
          "internalType": "contract IUniswapV3PositionUtility",
          "name": "_uniswapUtility",
          "type": "address"
        }
      ],
      "name": "setUtilityContractAddress",
      "outputs": [],
      "stateMutability": "nonpayable",
      "type": "function"
    },
    {
      "inputs": [],
      "name": "startBlock",
      "outputs": [
        {
          "internalType": "uint256",
          "name": "",
          "type": "uint256"
        }
      ],
      "stateMutability": "view",
      "type": "function"
    },
    {
      "inputs": [],
      "name": "totalAllocPoint",
      "outputs": [
        {
          "internalType": "uint256",
          "name": "",
          "type": "uint256"
        }
      ],
      "stateMutability": "view",
      "type": "function"
    },
    {
      "inputs": [],
      "name": "totalNativeTokenStaked",
      "outputs": [
        {
          "internalType": "uint256",
          "name": "",
          "type": "uint256"
        }
      ],
      "stateMutability": "view",
      "type": "function"
    },
    {
      "inputs": [
        {
          "internalType": "address",
          "name": "newOwner",
          "type": "address"
        }
      ],
      "name": "transferOwnership",
      "outputs": [],
      "stateMutability": "nonpayable",
      "type": "function"
    },
    {
      "inputs": [],
      "name": "uniswapUtility",
      "outputs": [
        {
          "internalType": "contract IUniswapV3PositionUtility",
          "name": "",
          "type": "address"
        }
      ],
      "stateMutability": "view",
      "type": "function"
    },
    {
      "inputs": [],
      "name": "uniswapV3LpSupply",
      "outputs": [
        {
          "internalType": "uint256",
          "name": "",
          "type": "uint256"
        }
      ],
      "stateMutability": "view",
      "type": "function"
    },
    {
      "inputs": [
        {
          "internalType": "uint256",
          "name": "_pid",
          "type": "uint256"
        }
      ],
      "name": "updatePool",
      "outputs": [],
      "stateMutability": "nonpayable",
      "type": "function"
    },
    {
      "inputs": [
        {
          "internalType": "address",
          "name": "newImplementation",
          "type": "address"
        }
      ],
      "name": "upgradeTo",
      "outputs": [],
      "stateMutability": "nonpayable",
      "type": "function"
    },
    {
      "inputs": [
        {
          "internalType": "address",
          "name": "newImplementation",
          "type": "address"
        },
        {
          "internalType": "bytes",
          "name": "data",
          "type": "bytes"
        }
      ],
      "name": "upgradeToAndCall",
      "outputs": [],
      "stateMutability": "payable",
      "type": "function"
    },
    {
      "inputs": [
        {
          "internalType": "uint256",
          "name": "",
          "type": "uint256"
        },
        {
          "internalType": "address",
          "name": "",
          "type": "address"
        }
      ],
      "name": "userInfo",
      "outputs": [
        {
          "internalType": "uint256",
          "name": "amount",
          "type": "uint256"
        },
        {
          "internalType": "uint256",
          "name": "rewardDebt",
          "type": "uint256"
        },
        {
          "internalType": "uint256",
          "name": "erc721TokenId",
          "type": "uint256"
        }
      ],
      "stateMutability": "view",
      "type": "function"
    },
    {
      "inputs": [
        {
          "internalType": "uint256",
          "name": "_pid",
          "type": "uint256"
        },
        {
          "internalType": "uint256",
          "name": "_amount",
          "type": "uint256"
        }
      ],
      "name": "withdraw",
      "outputs": [],
      "stateMutability": "nonpayable",
      "type": "function"
    }
  ],
  "bytecode": "0x60a06040523060805234801561001457600080fd5b506080516126e2610045600039600081816107b0015281816107f001528181610c150152610c5501526126e26000f3fe6080604052600436106101e35760003560e01c8063630b5ba111610102578063b807d80511610095578063d3ea15ee11610064578063d3ea15ee146105be578063e980e1eb146105de578063f2fde38b146105fe578063f8d0d9461461061e57600080fd5b8063b807d80514610548578063bc55c6ec14610568578063c71b4b431461057e578063ccdbef3d1461059e57600080fd5b80638da5cb5b116100d15780638da5cb5b146104885780638dbb1e3a146104a657806393f1a40b146104c65780639e0af2341461052857600080fd5b8063630b5ba11461042957806364482f791461043e578063715018a61461045e5780638aa285501461047357600080fd5b806340ff87e91161017a5780634ec81af1116101495780634ec81af11461039e5780634f1ef286146103be57806351eb05a6146103d15780635f2d6bcd146103f157600080fd5b806340ff87e914610332578063441a3e701461034857806348034e941461036857806348cd4cb11461038857600080fd5b80631aed6553116101b65780631aed6553146102ba5780631e0f692e146102d0578063243ae781146102f25780633659cfe61461031257600080fd5b8063081e3eda146101e8578063150b7a021461020c5780631526fe271461025157806317caf6f1146102a4575b600080fd5b3480156101f457600080fd5b5060cf545b6040519081526020015b60405180910390f35b34801561021857600080fd5b50610238610227366004611fc3565b630a85bd0160e11b95945050505050565b6040516001600160e01b03199091168152602001610203565b34801561025d57600080fd5b5061027161026c366004612062565b610634565b604080516001600160a01b039687168152959094166020860152928401919091526060830152608082015260a001610203565b3480156102b057600080fd5b506101f960d15481565b3480156102c657600080fd5b506101f960ca5481565b3480156102dc57600080fd5b506102f06102eb36600461207b565b610681565b005b3480156102fe57600080fd5b506102f061030d366004612062565b6106fe565b34801561031e57600080fd5b506102f061032d36600461207b565b6107a5565b34801561033e57600080fd5b506101f960cc5481565b34801561035457600080fd5b506102f0610363366004612098565b61086e565b34801561037457600080fd5b506102f061038336600461207b565b610a9f565b34801561039457600080fd5b506101f960d25481565b3480156103aa57600080fd5b506102f06103b93660046120ba565b610b13565b6102f06103cc36600461210b565b610c0a565b3480156103dd57600080fd5b506102f06103ec366004612062565b610cc4565b3480156103fd57600080fd5b5060ce54610411906001600160a01b031681565b6040516001600160a01b039091168152602001610203565b34801561043557600080fd5b506102f0610e1c565b34801561044a57600080fd5b506102f06104593660046121dd565b610e43565b34801561046a57600080fd5b506102f0610ef2565b34801561047f57600080fd5b506101f9600181565b34801561049457600080fd5b506097546001600160a01b0316610411565b3480156104b257600080fd5b506101f96104c1366004612098565b610f28565b3480156104d257600080fd5b5061050d6104e1366004612216565b60d060209081526000928352604080842090915290825290208054600182015460029092015490919083565b60408051938452602084019290925290820152606001610203565b34801561053457600080fd5b506102f0610543366004612062565b610f5c565b34801561055457600080fd5b506101f9610563366004612216565b610fc1565b34801561057457600080fd5b506101f960cb5481565b34801561058a57600080fd5b506102f0610599366004612246565b611152565b3480156105aa57600080fd5b5060cd54610411906001600160a01b031681565b3480156105ca57600080fd5b5060c954610411906001600160a01b031681565b3480156105ea57600080fd5b506102f06105f9366004612299565b6112da565b34801561060a57600080fd5b506102f061061936600461207b565b611444565b34801561062a57600080fd5b506101f960d35481565b60cf818154811061064457600080fd5b6000918252602090912060059091020180546001820154600283015460038401546004909401546001600160a01b03938416955091909216929085565b6097546001600160a01b031633146106b45760405162461bcd60e51b81526004016106ab906122cf565b60405180910390fd5b60ce80546001600160a01b0319166001600160a01b0383169081179091556040517f08a55ae824d7aa37c2e2afabb187755e538cb7bb596381ab0dce98c52da1f1d090600090a250565b6097546001600160a01b031633146107285760405162461bcd60e51b81526004016106ab906122cf565b6000811161076a5760405162461bcd60e51b815260206004820152600f60248201526e0214d415452506572426c6f636b2d3608c1b60448201526064016106ab565b610772610e1c565b60cb81905560405181907f147395bee24f2013545fc91e5b6fe46ccf8ba3126082b4da2631db7f11a0cb4f90600090a250565b306001600160a01b037f00000000000000000000000000000000000000000000000000000000000000001614156107ee5760405162461bcd60e51b81526004016106ab90612304565b7f00000000000000000000000000000000000000000000000000000000000000006001600160a01b03166108206114dc565b6001600160a01b0316146108465760405162461bcd60e51b81526004016106ab90612350565b61084f8161150a565b6040805160008082526020820190925261086b91839190611581565b50565b600060cf83815481106108835761088361239c565b6000918252602080832086845260d08252604080852033865290925292208054600590920290920192508311156108f15760405162461bcd60e51b81526020600482015260126024820152711dda5d1a191c985dce881b9bdd0819dbdbd960721b60448201526064016106ab565b6108fa84610cc4565b6000610934826001015461092e64e8d4a51000610928876004015487600001546116c590919063ffffffff16565b906116d8565b906116e4565b905061094033826116f0565b846109565760cc5461095290856116e4565b60cc555b846001146109a7578254610974906001600160a01b0316338661184c565b815461098090856116e4565b808355600484015461099d9164e8d4a510009161092891906116c5565b6001830155610a61565b8460011415610a61578154600080845560048501549195506109d39164e8d4a5100091610928916116c5565b600183015560ce546002830154604051632142170760e11b815230600482015233602482015260448101919091526001600160a01b03909116906342842e0e90606401600060405180830381600087803b158015610a3057600080fd5b505af1158015610a44573d6000803e3d6000fd5b505060d354610a5692509050856116e4565b60d355600060028301555b604051848152859033907ff279e6a1f5e320cca91135676d9cb6e44ca8a08c0b88342bcdb1144f6511b5689060200160405180910390a35050505050565b6097546001600160a01b03163314610ac95760405162461bcd60e51b81526004016106ab906122cf565b60cd80546001600160a01b0319166001600160a01b0383169081179091556040517f994aeefbed9d17bebe3d9c10d7aeffa7f236e29becee0b08d8b51082b957ced790600090a250565b600054610100900460ff16610b2e5760005460ff1615610b32565b303b155b610b955760405162461bcd60e51b815260206004820152602e60248201527f496e697469616c697a61626c653a20636f6e747261637420697320616c72656160448201526d191e481a5b9a5d1a585b1a5e995960921b60648201526084016106ab565b600054610100900460ff16158015610bb7576000805461ffff19166101011790555b610bbf6118af565b610bc76118e6565b60c980546001600160a01b0319166001600160a01b03871617905560cb84905560ca82905560d28390558015610c03576000805461ff00191690555b5050505050565b306001600160a01b037f0000000000000000000000000000000000000000000000000000000000000000161415610c535760405162461bcd60e51b81526004016106ab90612304565b7f00000000000000000000000000000000000000000000000000000000000000006001600160a01b0316610c856114dc565b6001600160a01b031614610cab5760405162461bcd60e51b81526004016106ab90612350565b610cb48261150a565b610cc082826001611581565b5050565b600060cf8281548110610cd957610cd961239c565b9060005260206000209060050201905080600301544311610cf8575050565b600082610d08575060cc54610d97565b8260011415610d1a575060d354610d97565b81546040516370a0823160e01b81523060048201526001600160a01b03909116906370a082319060240160206040518083038186803b158015610d5c57600080fd5b505afa158015610d70573d6000803e3d6000fd5b505050506040513d601f19601f82011682018060405250810190610d9491906123b2565b90505b80610da757504360039091015550565b6000610db7836003015443610f28565b90506000610de460d1546109288660020154610dde60cb54876116c590919063ffffffff16565b906116c5565b9050610e07610dfc846109288464e8d4a510006116c5565b60048601549061191d565b60048501555050436003909201919091555050565b60cf5460005b81811015610cc057610e3381610cc4565b610e3c816123e1565b9050610e22565b6097546001600160a01b03163314610e6d5760405162461bcd60e51b81526004016106ab906122cf565b8015610e7b57610e7b610e1c565b610ebe82610eb860cf8681548110610e9557610e9561239c565b90600052602060002090600502016002015460d1546116e490919063ffffffff16565b9061191d565b60d1819055508160cf8481548110610ed857610ed861239c565b906000526020600020906005020160020181905550505050565b6097546001600160a01b03163314610f1c5760405162461bcd60e51b81526004016106ab906122cf565b610f266000611929565b565b600060ca548211610f4957610f426001610dde84866116e4565b9050610f56565b60ca548210610f56575060005b92915050565b6097546001600160a01b03163314610f865760405162461bcd60e51b81526004016106ab906122cf565b610f8e610e1c565b60ca81905560405181907ff0fe603f503373f7e1318e6b2ad8de7a6b567113297fd582e6756558a44bfc2490600090a250565b60008060cf8481548110610fd757610fd761239c565b6000918252602080832087845260d0825260408085206001600160a01b038916865290925290832060059290920201600481015490935090918661101e575060cc546110ad565b8660011415611030575060d3546110ad565b83546040516370a0823160e01b81523060048201526001600160a01b03909116906370a082319060240160206040518083038186803b15801561107257600080fd5b505afa158015611086573d6000803e3d6000fd5b505050506040513d601f19601f820116820180604052508101906110aa91906123b2565b90505b8360030154431180156110bf57508015155b1561111f5760006110d4856003015443610f28565b905060006110fb60d1546109288860020154610dde60cb54876116c590919063ffffffff16565b905061111a611113846109288464e8d4a510006116c5565b859061191d565b935050505b611147836001015461092e64e8d4a510006109288688600001546116c590919063ffffffff16565b979650505050505050565b6097546001600160a01b0316331461117c5760405162461bcd60e51b81526004016106ab906122cf565b801561118a5761118a610e1c565b600060d254431161119d5760d25461119f565b435b60d1549091506111af908661191d565b60d1556040805160a0810182526001600160a01b039586168152938516602085019081529084019586526060840191825260006080850181815260cf80546001810182559252945160059091027facb8d954e2cfef495862221e91bd7523613cf8808827cb33edfe4904cc51bf29810180549288166001600160a01b031993841617905591517facb8d954e2cfef495862221e91bd7523613cf8808827cb33edfe4904cc51bf2a830180549190971691161790945593517facb8d954e2cfef495862221e91bd7523613cf8808827cb33edfe4904cc51bf2b8401555091517facb8d954e2cfef495862221e91bd7523613cf8808827cb33edfe4904cc51bf2c82015590517facb8d954e2cfef495862221e91bd7523613cf8808827cb33edfe4904cc51bf2d90910155565b600060cf85815481106112ef576112ef61239c565b6000918252602080832088845260d08252604080852033865290925292206005909102909101915061132086610cc4565b805415611363576000611355826001015461092e64e8d4a51000610928876004015487600001546116c590919063ffffffff16565b905061136133826116f0565b505b85600114611382578154611382906001600160a01b031633308861197b565b8561139c5760cc54611394908661191d565b60cc556113d7565b8560011480156113ae57506001831515145b156113d7576113bc846119b3565b6002820185905560d3549095506113d3908661191d565b60d3555b80546113e3908661191d565b80825560048301546114009164e8d4a510009161092891906116c5565b6001820155604051858152869033907f90890809c654f11d6e72a28fa60149770a0d11ec6c92319d6ceb2bb0a4ea1a159060200160405180910390a3505050505050565b6097546001600160a01b0316331461146e5760405162461bcd60e51b81526004016106ab906122cf565b6001600160a01b0381166114d35760405162461bcd60e51b815260206004820152602660248201527f4f776e61626c653a206e6577206f776e657220697320746865207a65726f206160448201526564647265737360d01b60648201526084016106ab565b61086b81611929565b7f360894a13ba1a3210667c828492db98dca3e2076cc3735a920a3ca505d382bbc546001600160a01b031690565b3361151d6097546001600160a01b031690565b6001600160a01b03161461086b5760405162461bcd60e51b815260206004820152602560248201527f4f6e6c79206f776e65722063616e207570677261646520696d706c656d656e7460448201526430ba34b7b760d91b60648201526084016106ab565b600061158b6114dc565b905061159684611b3f565b6000835111806115a35750815b156115b4576115b28484611be4565b505b7f4910fdfa16fed3260ed0e7147f7cc6da11a60208b5b9406d12a635614ffd9143805460ff16610c0357805460ff191660011781556040516001600160a01b038316602482015261163390869060440160408051601f198184030181529190526020810180516001600160e01b0316631b2ce7f360e11b179052611be4565b50805460ff191681556116446114dc565b6001600160a01b0316826001600160a01b0316146116bc5760405162461bcd60e51b815260206004820152602f60248201527f45524331393637557067726164653a207570677261646520627265616b73206660448201526e75727468657220757067726164657360881b60648201526084016106ab565b610c0385611ccf565b60006116d182846123fc565b9392505050565b60006116d1828461241b565b60006116d1828461243d565b60cc5460c9546040516370a0823160e01b81523060048201526000926117779290916001600160a01b03909116906370a082319060240160206040518083038186803b15801561173f57600080fd5b505afa158015611753573d6000803e3d6000fd5b505050506040513d601f19601f8201168201806040525081019061092e91906123b2565b90508082111561180e5760c95460405163a9059cbb60e01b81526001600160a01b038581166004830152602482018490529091169063a9059cbb906044015b602060405180830381600087803b1580156117d057600080fd5b505af11580156117e4573d6000803e3d6000fd5b505050506040513d601f19601f820116820180604052508101906118089190612454565b50505050565b60c95460405163a9059cbb60e01b81526001600160a01b038581166004830152602482018590529091169063a9059cbb906044016117b6565b505050565b6040516001600160a01b03831660248201526044810182905261184790849063a9059cbb60e01b906064015b60408051601f198184030181529190526020810180516001600160e01b03166001600160e01b031990931692909217909152611d0f565b600054610100900460ff166118d65760405162461bcd60e51b81526004016106ab90612471565b6118de611de1565b610f26611e08565b600054610100900460ff1661190d5760405162461bcd60e51b81526004016106ab90612471565b611915611de1565b610f26611de1565b60006116d182846124bc565b609780546001600160a01b038381166001600160a01b0319831681179093556040519116919082907f8be0079c531659141344cd1fd0a4f28419497f9722a3daafe3b4186f6b6457e090600090a35050565b6040516001600160a01b03808516602483015283166044820152606481018290526118089085906323b872dd60e01b90608401611878565b60ce5460405163133f757160e31b8152600481018390526000918291829182916001600160a01b03909116906399fbab88906024016101806040518083038186803b158015611a0157600080fd5b505afa158015611a15573d6000803e3d6000fd5b505050506040513d601f19601f82011682018060405250810190611a399190612529565b505060cd54604051632559600b60e21b8152989c50969a50506001600160a01b039095169750639565802c9650611a7b958d95506004019350611fa592505050565b60206040518083038186803b158015611a9357600080fd5b505afa158015611aa7573d6000803e3d6000fd5b505050506040513d601f19601f82011682018060405250810190611acb91906123b2565b60ce54604051632142170760e11b8152336004820152306024820152604481018890529194506001600160a01b0316906342842e0e90606401600060405180830381600087803b158015611b1e57600080fd5b505af1158015611b32573d6000803e3d6000fd5b5094979650505050505050565b803b611ba35760405162461bcd60e51b815260206004820152602d60248201527f455243313936373a206e657720696d706c656d656e746174696f6e206973206e60448201526c1bdd08184818dbdb9d1c9858dd609a1b60648201526084016106ab565b7f360894a13ba1a3210667c828492db98dca3e2076cc3735a920a3ca505d382bbc80546001600160a01b0319166001600160a01b0392909216919091179055565b6060823b611c435760405162461bcd60e51b815260206004820152602660248201527f416464726573733a2064656c65676174652063616c6c20746f206e6f6e2d636f6044820152651b9d1c9858dd60d21b60648201526084016106ab565b600080846001600160a01b031684604051611c5e9190612636565b600060405180830381855af49150503d8060008114611c99576040519150601f19603f3d011682016040523d82523d6000602084013e611c9e565b606091505b5091509150611cc6828260405180606001604052806027815260200161268660279139611e38565b95945050505050565b611cd881611b3f565b6040516001600160a01b038216907fbc7cd75a20ee27fd9adebab32041f755214dbc6bffa90cc0225b39da2e5c2d3b90600090a250565b6000611d64826040518060400160405280602081526020017f5361666545524332303a206c6f772d6c6576656c2063616c6c206661696c6564815250856001600160a01b0316611e719092919063ffffffff16565b8051909150156118475780806020019051810190611d829190612454565b6118475760405162461bcd60e51b815260206004820152602a60248201527f5361666545524332303a204552433230206f7065726174696f6e20646964206e6044820152691bdd081cdd58d8d9595960b21b60648201526084016106ab565b600054610100900460ff16610f265760405162461bcd60e51b81526004016106ab90612471565b600054610100900460ff16611e2f5760405162461bcd60e51b81526004016106ab90612471565b610f2633611929565b60608315611e475750816116d1565b825115611e575782518084602001fd5b8160405162461bcd60e51b81526004016106ab9190612652565b6060611e808484600085611e88565b949350505050565b606082471015611ee95760405162461bcd60e51b815260206004820152602660248201527f416464726573733a20696e73756666696369656e742062616c616e636520666f6044820152651c8818d85b1b60d21b60648201526084016106ab565b843b611f375760405162461bcd60e51b815260206004820152601d60248201527f416464726573733a2063616c6c20746f206e6f6e2d636f6e747261637400000060448201526064016106ab565b600080866001600160a01b03168587604051611f539190612636565b60006040518083038185875af1925050503d8060008114611f90576040519150601f19603f3d011682016040523d82523d6000602084013e611f95565b606091505b5091509150611147828286611e38565b90815260200190565b6001600160a01b038116811461086b57600080fd5b600080600080600060808688031215611fdb57600080fd5b8535611fe681611fae565b94506020860135611ff681611fae565b935060408601359250606086013567ffffffffffffffff8082111561201a57600080fd5b818801915088601f83011261202e57600080fd5b81358181111561203d57600080fd5b89602082850101111561204f57600080fd5b9699959850939650602001949392505050565b60006020828403121561207457600080fd5b5035919050565b60006020828403121561208d57600080fd5b81356116d181611fae565b600080604083850312156120ab57600080fd5b50508035926020909101359150565b600080600080608085870312156120d057600080fd5b84356120db81611fae565b966020860135965060408601359560600135945092505050565b634e487b7160e01b600052604160045260246000fd5b6000806040838503121561211e57600080fd5b823561212981611fae565b9150602083013567ffffffffffffffff8082111561214657600080fd5b818501915085601f83011261215a57600080fd5b81358181111561216c5761216c6120f5565b604051601f8201601f19908116603f01168101908382118183101715612194576121946120f5565b816040528281528860208487010111156121ad57600080fd5b8260208601602083013760006020848301015280955050505050509250929050565b801515811461086b57600080fd5b6000806000606084860312156121f257600080fd5b8335925060208401359150604084013561220b816121cf565b809150509250925092565b6000806040838503121561222957600080fd5b82359150602083013561223b81611fae565b809150509250929050565b6000806000806080858703121561225c57600080fd5b84359350602085013561226e81611fae565b9250604085013561227e81611fae565b9150606085013561228e816121cf565b939692955090935050565b600080600080608085870312156122af57600080fd5b843593506020850135925060408501359150606085013561228e816121cf565b6020808252818101527f4f776e61626c653a2063616c6c6572206973206e6f7420746865206f776e6572604082015260600190565b6020808252602c908201527f46756e6374696f6e206d7573742062652063616c6c6564207468726f7567682060408201526b19195b1959d85d1958d85b1b60a21b606082015260800190565b6020808252602c908201527f46756e6374696f6e206d7573742062652063616c6c6564207468726f7567682060408201526b6163746976652070726f787960a01b606082015260800190565b634e487b7160e01b600052603260045260246000fd5b6000602082840312156123c457600080fd5b5051919050565b634e487b7160e01b600052601160045260246000fd5b60006000198214156123f5576123f56123cb565b5060010190565b6000816000190483118215151615612416576124166123cb565b500290565b60008261243857634e487b7160e01b600052601260045260246000fd5b500490565b60008282101561244f5761244f6123cb565b500390565b60006020828403121561246657600080fd5b81516116d1816121cf565b6020808252602b908201527f496e697469616c697a61626c653a20636f6e7472616374206973206e6f74206960408201526a6e697469616c697a696e6760a81b606082015260800190565b600082198211156124cf576124cf6123cb565b500190565b80516124df81611fae565b919050565b805162ffffff811681146124df57600080fd5b8051600281900b81146124df57600080fd5b80516fffffffffffffffffffffffffffffffff811681146124df57600080fd5b6000806000806000806000806000806000806101808d8f03121561254c57600080fd5b8c516bffffffffffffffffffffffff8116811461256857600080fd5b9b5061257660208e016124d4565b9a5061258460408e016124d4565b995061259260608e016124d4565b98506125a060808e016124e4565b97506125ae60a08e016124f7565b96506125bc60c08e016124f7565b95506125ca60e08e01612509565b94506101008d015193506101208d015192506125e96101408e01612509565b91506125f86101608e01612509565b90509295989b509295989b509295989b565b60005b8381101561262557818101518382015260200161260d565b838111156118085750506000910152565b6000825161264881846020870161260a565b9190910192915050565b602081526000825180602084015261267181604085016020870161260a565b601f01601f1916919091016040019291505056fe416464726573733a206c6f772d6c6576656c2064656c65676174652063616c6c206661696c6564a26469706673582212209c75ed98fe417c4ea3242fc489962ead3d54300d63bd3b2207df87f1ffdcbda664736f6c63430008090033",
  "linkReferences": {},
  "deployedLinkReferences": {}
}