{
  "_format": "hh-sol-artifact-1",
  "contractName": "UniswapV3PositionUtility",
  "sourceName": "contracts/UniswapV3PositionUtility.sol",
  "abi": [
    {
      "inputs": [],
      "name": "T",
      "type": "error"
    },
    {
      "anonymous": false,
      "inputs": [
        {
          "indexed": true,
          "internalType": "address",
          "name": "previousOwner",
          "type": "address"
        },
        {
          "indexed": true,
          "internalType": "address",
          "name": "newOwner",
          "type": "address"
        }
      ],
      "name": "OwnershipTransferred",
      "type": "event"
    },
    {
      "inputs": [
        {
          "internalType": "uint256",
          "name": "tokenID",
          "type": "uint256"
        }
      ],
      "name": "getMATRAmount",
      "outputs": [
        {
          "internalType": "uint256",
          "name": "",
          "type": "uint256"
        }
      ],
      "stateMutability": "view",
      "type": "function"
    },
    {
      "inputs": [],
      "name": "matrContract",
      "outputs": [
        {
          "internalType": "address",
          "name": "",
          "type": "address"
        }
      ],
      "stateMutability": "view",
      "type": "function"
    },
    {
      "inputs": [],
      "name": "owner",
      "outputs": [
        {
          "internalType": "address",
          "name": "",
          "type": "address"
        }
      ],
      "stateMutability": "view",
      "type": "function"
    },
    {
      "inputs": [],
      "name": "renounceOwnership",
      "outputs": [],
      "stateMutability": "nonpayable",
      "type": "function"
    },
    {
      "inputs": [
        {
          "internalType": "address",
          "name": "_matrContract",
          "type": "address"
        }
      ],
      "name": "setMATRContract",
      "outputs": [],
      "stateMutability": "nonpayable",
      "type": "function"
    },
    {
      "inputs": [
        {
          "internalType": "address",
          "name": "_uniswapFactory",
          "type": "address"
        }
      ],
      "name": "setUniswapFactory",
      "outputs": [],
      "stateMutability": "nonpayable",
      "type": "function"
    },
    {
      "inputs": [
        {
          "internalType": "address",
          "name": "_uniswapPositionManager",
          "type": "address"
        }
      ],
      "name": "setUniswapPositionManager",
      "outputs": [],
      "stateMutability": "nonpayable",
      "type": "function"
    },
    {
      "inputs": [
        {
          "internalType": "address",
          "name": "newOwner",
          "type": "address"
        }
      ],
      "name": "transferOwnership",
      "outputs": [],
      "stateMutability": "nonpayable",
      "type": "function"
    },
    {
      "inputs": [],
      "name": "uniswapFactory",
      "outputs": [
        {
          "internalType": "address",
          "name": "",
          "type": "address"
        }
      ],
      "stateMutability": "view",
      "type": "function"
    },
    {
      "inputs": [],
      "name": "uniswapPositionManager",
      "outputs": [
        {
          "internalType": "address",
          "name": "",
          "type": "address"
        }
      ],
      "stateMutability": "view",
      "type": "function"
    }
  ],
  "bytecode": "0x608060405234801561001057600080fd5b5061001a3361001f565b61006f565b600080546001600160a01b038381166001600160a01b0319831681178455604051919092169283917f8be0079c531659141344cd1fd0a4f28419497f9722a3daafe3b4186f6b6457e09190a35050565b6111278061007e6000396000f3fe608060405234801561001057600080fd5b506004361061009e5760003560e01c80639de3567c116100665780639de3567c14610122578063bc8ce2f714610135578063e04b677f14610148578063e5047b301461015b578063f2fde38b1461016e57600080fd5b80634f83777c146100a3578063715018a6146100b85780638bdb2afa146100c05780638da5cb5b146100f05780639565802c14610101575b600080fd5b6100b66100b1366004610d97565b610181565b005b6100b66101da565b6002546100d3906001600160a01b031681565b6040516001600160a01b0390911681526020015b60405180910390f35b6000546001600160a01b03166100d3565b61011461010f366004610db4565b6101ee565b6040519081526020016100e7565b6100b6610130366004610d97565b6103fe565b6003546100d3906001600160a01b031681565b6100b6610156366004610d97565b61044e565b6001546100d3906001600160a01b031681565b6100b661017c366004610d97565b61049e565b610189610517565b6001600160a01b0381166101b85760405162461bcd60e51b81526004016101af90610dcd565b60405180910390fd5b600380546001600160a01b0319166001600160a01b0392909216919091179055565b6101e2610517565b6101ec6000610571565b565b60015460405163133f757160e31b8152600481018390526000918291829182918291829182916001600160a01b0316906399fbab88906024016101806040518083038186803b15801561024057600080fd5b505afa158015610254573d6000803e3d6000fd5b505050506040513d601f19601f820116820180604052508101906102789190610e3f565b909192939495969798999a509091929394959697989950909192939495965090919250909150905050809850819a5082995083965084975050505050506000600260009054906101000a90046001600160a01b03166001600160a01b0316631698ee828585610bb86040518463ffffffff1660e01b8152600401610322939291906001600160a01b03938416815291909216602082015262ffffff91909116604082015260600190565b60206040518083038186803b15801561033a57600080fd5b505afa15801561034e573d6000803e3d6000fd5b505050506040513d601f19601f820116820180604052508101906103729190610f20565b6003549091506001600160a01b03858116911614156103a457610397878787846105c1565b9998505050505050505050565b6003546001600160a01b03848116911614156103c657610397878787846106a3565b60405162461bcd60e51b815260206004820152600d60248201526c1b9bdd081b585d1c881c1bdbdb609a1b60448201526064016101af565b610406610517565b6001600160a01b03811661042c5760405162461bcd60e51b81526004016101af90610dcd565b600180546001600160a01b0319166001600160a01b0392909216919091179055565b610456610517565b6001600160a01b03811661047c5760405162461bcd60e51b81526004016101af90610dcd565b600280546001600160a01b0319166001600160a01b0392909216919091179055565b6104a6610517565b6001600160a01b03811661050b5760405162461bcd60e51b815260206004820152602660248201527f4f776e61626c653a206e6577206f776e657220697320746865207a65726f206160448201526564647265737360d01b60648201526084016101af565b61051481610571565b50565b6000546001600160a01b031633146101ec5760405162461bcd60e51b815260206004820181905260248201527f4f776e61626c653a2063616c6c6572206973206e6f7420746865206f776e657260448201526064016101af565b600080546001600160a01b038381166001600160a01b0319831681178455604051919092169283917f8be0079c531659141344cd1fd0a4f28419497f9722a3daafe3b4186f6b6457e09190a35050565b600080826001600160a01b0316633850c7bd6040518163ffffffff1660e01b815260040160e06040518083038186803b1580156105fd57600080fd5b505afa158015610611573d6000803e3d6000fd5b505050506040513d601f19601f820116820180604052508101906106359190610f70565b80516020820151919250908590600090600289810b91900b12156106755761066e61065f8961077d565b6106688b61077d565b84610a9d565b9050610697565b8860020b846020015160020b121561069757610694836106688b61077d565b90505b98975050505050505050565b600080826001600160a01b0316633850c7bd6040518163ffffffff1660e01b815260040160e06040518083038186803b1580156106df57600080fd5b505afa1580156106f3573d6000803e3d6000fd5b505050506040513d601f19601f820116820180604052508101906107179190610f70565b80516020820151919250908590600090600289810b91900b121561073d57506000610697565b8860020b846020015160020b12156107625761066e61075b8961077d565b8484610aee565b61069461076e8961077d565b6107778b61077d565b84610aee565b60008060008360020b12610794578260020b61079c565b8260020b6000035b9050620d89e88111156107c2576040516315e4079d60e11b815260040160405180910390fd5b6000600182166107d657600160801b6107e8565b6ffffcb933bd6fad37aa2d162d1a5940015b70ffffffffffffffffffffffffffffffffff169050600282161561081c576ffff97272373d413259a46990580e213a0260801c5b600482161561083b576ffff2e50f5f656932ef12357cf3c7fdcc0260801c5b600882161561085a576fffe5caca7e10e4e61c3624eaa0941cd00260801c5b6010821615610879576fffcb9843d60f6159c9db58835c9266440260801c5b6020821615610898576fff973b41fa98c081472e6896dfb254c00260801c5b60408216156108b7576fff2ea16466c96a3843ec78b326b528610260801c5b60808216156108d6576ffe5dee046a99a2a811c461f1969c30530260801c5b6101008216156108f6576ffcbe86c7900a88aedcffc83b479aa3a40260801c5b610200821615610916576ff987a7253ac413176f2b074cf7815e540260801c5b610400821615610936576ff3392b0822b70005940c7a398e4b70f30260801c5b610800821615610956576fe7159475a2c29b7443b29c7fa6e889d90260801c5b611000821615610976576fd097f3bdfd2022b8845ad8f792aa58250260801c5b612000821615610996576fa9f746462d870fdf8a65dc1f90e061e50260801c5b6140008216156109b6576f70d869a156d2a1b890bb3df62baf32f70260801c5b6180008216156109d6576f31be135f97d08fd981231505542fcfa60260801c5b620100008216156109f7576f09aa508b5b7a84e1c677de54f3e99bc90260801c5b62020000821615610a17576e5d6af8dedb81196699c329225ee6040260801c5b62040000821615610a36576d2216e584f5fa1ea926041bedfe980260801c5b62080000821615610a53576b048a170391f7dc42444e8fa20260801c5b60008460020b1315610a74578060001981610a7057610a7061102e565b0490505b640100000000810615610a88576001610a8b565b60005b60ff16602082901c0192505050919050565b60008082600f0b12610ac357610abe610ab98585856001610b22565b610bf2565b610ae4565b610adb610ab98585610ad48661105a565b6000610b22565b610ae49061108a565b90505b9392505050565b60008082600f0b12610b0a57610abe610ab98585856001610c08565b610adb610ab98585610b1b8661105a565b6000610c08565b6000836001600160a01b0316856001600160a01b03161115610b42579293925b6fffffffffffffffffffffffffffffffff60601b606084901b166000610b6887876110a7565b6001600160a01b031690506000876001600160a01b031611610b8957600080fd5b83610bbb57866001600160a01b0316610bac8383896001600160a01b0316610c8f565b610bb691906110cf565b610be7565b610be7610bd28383896001600160a01b0316610d42565b886001600160a01b0316808204910615150190565b979650505050505050565b6000600160ff1b8210610c0457600080fd5b5090565b6000836001600160a01b0316856001600160a01b03161115610c28579293925b81610c5c57610c576001600160801b038416610c4487876110a7565b6001600160a01b0316600160601b610c8f565b610c86565b610c866001600160801b038416610c7387876110a7565b6001600160a01b0316600160601b610d42565b95945050505050565b600080806000198587098587029250828110838203039150508060001415610cc95760008411610cbe57600080fd5b508290049050610ae7565b808411610cd557600080fd5b6000848688096000868103871696879004966002600389028118808a02820302808a02820302808a02820302808a02820302808a02820302808a02909103029181900381900460010186841190950394909402919094039290920491909117919091029150509392505050565b6000610d4f848484610c8f565b905060008280610d6157610d6161102e565b8486091115610ae7576000198110610d7857600080fd5b6001019392505050565b6001600160a01b038116811461051457600080fd5b600060208284031215610da957600080fd5b8135610ae781610d82565b600060208284031215610dc657600080fd5b5035919050565b6020808252600c908201526b5a65726f206164647265737360a01b604082015260600190565b8051610dfe81610d82565b919050565b805162ffffff81168114610dfe57600080fd5b8051600281900b8114610dfe57600080fd5b80516001600160801b0381168114610dfe57600080fd5b6000806000806000806000806000806000806101808d8f031215610e6257600080fd5b8c516bffffffffffffffffffffffff81168114610e7e57600080fd5b9b50610e8c60208e01610df3565b9a50610e9a60408e01610df3565b9950610ea860608e01610df3565b9850610eb660808e01610e03565b9750610ec460a08e01610e16565b9650610ed260c08e01610e16565b9550610ee060e08e01610e28565b94506101008d015193506101208d01519250610eff6101408e01610e28565b9150610f0e6101608e01610e28565b90509295989b509295989b509295989b565b600060208284031215610f3257600080fd5b8151610ae781610d82565b805161ffff81168114610dfe57600080fd5b805160ff81168114610dfe57600080fd5b80518015158114610dfe57600080fd5b600060e08284031215610f8257600080fd5b60405160e0810181811067ffffffffffffffff82111715610fb357634e487b7160e01b600052604160045260246000fd5b604052610fbf83610df3565b8152610fcd60208401610e16565b6020820152610fde60408401610f3d565b6040820152610fef60608401610f3d565b606082015261100060808401610f3d565b608082015261101160a08401610f4f565b60a082015261102260c08401610f60565b60c08201529392505050565b634e487b7160e01b600052601260045260246000fd5b634e487b7160e01b600052601160045260246000fd5b600081600f0b6f7fffffffffffffffffffffffffffffff1981141561108157611081611044565b60000392915050565b6000600160ff1b8214156110a0576110a0611044565b5060000390565b60006001600160a01b03838116908316818110156110c7576110c7611044565b039392505050565b6000826110ec57634e487b7160e01b600052601260045260246000fd5b50049056fea264697066735822122060867cc48205ea2d1cd0bd05106f2330937ce8206ab1ed574472102ccdbbffcd64736f6c63430008090033",
  "linkReferences": {},
  "deployedLinkReferences": {}
}