{
  "_format": "hh-sol-artifact-1",
  "contractName": "MockToken",
  "sourceName": "contracts/mock/MockToken.sol",
  "abi": [
    {
      "inputs": [],
      "stateMutability": "nonpayable",
      "type": "constructor"
    },
    {
      "anonymous": false,
      "inputs": [
        {
          "indexed": true,
          "internalType": "address",
          "name": "owner",
          "type": "address"
        },
        {
          "indexed": true,
          "internalType": "address",
          "name": "spender",
          "type": "address"
        },
        {
          "indexed": false,
          "internalType": "uint256",
          "name": "value",
          "type": "uint256"
        }
      ],
      "name": "Approval",
      "type": "event"
    },
    {
      "anonymous": false,
      "inputs": [
        {
          "indexed": true,
          "internalType": "address",
          "name": "previousOwner",
          "type": "address"
        },
        {
          "indexed": true,
          "internalType": "address",
          "name": "newOwner",
          "type": "address"
        }
      ],
      "name": "OwnershipTransferred",
      "type": "event"
    },
    {
      "anonymous": false,
      "inputs": [
        {
          "indexed": true,
          "internalType": "address",
          "name": "from",
          "type": "address"
        },
        {
          "indexed": true,
          "internalType": "address",
          "name": "to",
          "type": "address"
        },
        {
          "indexed": false,
          "internalType": "uint256",
          "name": "value",
          "type": "uint256"
        }
      ],
      "name": "Transfer",
      "type": "event"
    },
    {
      "inputs": [
        {
          "internalType": "address",
          "name": "owner",
          "type": "address"
        },
        {
          "internalType": "address",
          "name": "spender",
          "type": "address"
        }
      ],
      "name": "allowance",
      "outputs": [
        {
          "internalType": "uint256",
          "name": "",
          "type": "uint256"
        }
      ],
      "stateMutability": "view",
      "type": "function"
    },
    {
      "inputs": [
        {
          "internalType": "address",
          "name": "spender",
          "type": "address"
        },
        {
          "internalType": "uint256",
          "name": "amount",
          "type": "uint256"
        }
      ],
      "name": "approve",
      "outputs": [
        {
          "internalType": "bool",
          "name": "",
          "type": "bool"
        }
      ],
      "stateMutability": "nonpayable",
      "type": "function"
    },
    {
      "inputs": [
        {
          "internalType": "address",
          "name": "account",
          "type": "address"
        }
      ],
      "name": "balanceOf",
      "outputs": [
        {
          "internalType": "uint256",
          "name": "",
          "type": "uint256"
        }
      ],
      "stateMutability": "view",
      "type": "function"
    },
    {
      "inputs": [],
      "name": "decimals",
      "outputs": [
        {
          "internalType": "uint8",
          "name": "",
          "type": "uint8"
        }
      ],
      "stateMutability": "view",
      "type": "function"
    },
    {
      "inputs": [
        {
          "internalType": "address",
          "name": "spender",
          "type": "address"
        },
        {
          "internalType": "uint256",
          "name": "subtractedValue",
          "type": "uint256"
        }
      ],
      "name": "decreaseAllowance",
      "outputs": [
        {
          "internalType": "bool",
          "name": "",
          "type": "bool"
        }
      ],
      "stateMutability": "nonpayable",
      "type": "function"
    },
    {
      "inputs": [
        {
          "internalType": "address",
          "name": "spender",
          "type": "address"
        },
        {
          "internalType": "uint256",
          "name": "addedValue",
          "type": "uint256"
        }
      ],
      "name": "increaseAllowance",
      "outputs": [
        {
          "internalType": "bool",
          "name": "",
          "type": "bool"
        }
      ],
      "stateMutability": "nonpayable",
      "type": "function"
    },
    {
      "inputs": [],
      "name": "initialize",
      "outputs": [],
      "stateMutability": "nonpayable",
      "type": "function"
    },
    {
      "inputs": [
        {
          "internalType": "address",
          "name": "to",
          "type": "address"
        },
        {
          "internalType": "uint256",
          "name": "amount",
          "type": "uint256"
        }
      ],
      "name": "mint",
      "outputs": [],
      "stateMutability": "nonpayable",
      "type": "function"
    },
    {
      "inputs": [],
      "name": "name",
      "outputs": [
        {
          "internalType": "string",
          "name": "",
          "type": "string"
        }
      ],
      "stateMutability": "view",
      "type": "function"
    },
    {
      "inputs": [],
      "name": "owner",
      "outputs": [
        {
          "internalType": "address",
          "name": "",
          "type": "address"
        }
      ],
      "stateMutability": "view",
      "type": "function"
    },
    {
      "inputs": [],
      "name": "renounceOwnership",
      "outputs": [],
      "stateMutability": "nonpayable",
      "type": "function"
    },
    {
      "inputs": [],
      "name": "symbol",
      "outputs": [
        {
          "internalType": "string",
          "name": "",
          "type": "string"
        }
      ],
      "stateMutability": "view",
      "type": "function"
    },
    {
      "inputs": [],
      "name": "totalSupply",
      "outputs": [
        {
          "internalType": "uint256",
          "name": "",
          "type": "uint256"
        }
      ],
      "stateMutability": "view",
      "type": "function"
    },
    {
      "inputs": [
        {
          "internalType": "address",
          "name": "recipient",
          "type": "address"
        },
        {
          "internalType": "uint256",
          "name": "amount",
          "type": "uint256"
        }
      ],
      "name": "transfer",
      "outputs": [
        {
          "internalType": "bool",
          "name": "",
          "type": "bool"
        }
      ],
      "stateMutability": "nonpayable",
      "type": "function"
    },
    {
      "inputs": [
        {
          "internalType": "address",
          "name": "sender",
          "type": "address"
        },
        {
          "internalType": "address",
          "name": "recipient",
          "type": "address"
        },
        {
          "internalType": "uint256",
          "name": "amount",
          "type": "uint256"
        }
      ],
      "name": "transferFrom",
      "outputs": [
        {
          "internalType": "bool",
          "name": "",
          "type": "bool"
        }
      ],
      "stateMutability": "nonpayable",
      "type": "function"
    },
    {
      "inputs": [
        {
          "internalType": "address",
          "name": "newOwner",
          "type": "address"
        }
      ],
      "name": "transferOwnership",
      "outputs": [],
      "stateMutability": "nonpayable",
      "type": "function"
    }
  ],
  "bytecode": "0x608060405234801561001057600080fd5b50610edd806100206000396000f3fe608060405234801561001057600080fd5b50600436106101005760003560e01c8063715018a611610097578063a457c2d711610066578063a457c2d7146101fe578063a9059cbb14610211578063dd62ed3e14610224578063f2fde38b1461025d57600080fd5b8063715018a6146101cb5780638129fc1c146101d35780638da5cb5b146101db57806395d89b41146101f657600080fd5b8063313ce567116100d3578063313ce5671461016b578063395093511461017a57806340c10f191461018d57806370a08231146101a257600080fd5b806306fdde0314610105578063095ea7b31461012357806318160ddd1461014657806323b872dd14610158575b600080fd5b61010d610270565b60405161011a9190610c9a565b60405180910390f35b610136610131366004610d0b565b610302565b604051901515815260200161011a565b6035545b60405190815260200161011a565b610136610166366004610d35565b610318565b6040516012815260200161011a565b610136610188366004610d0b565b6103c7565b6101a061019b366004610d0b565b610403565b005b61014a6101b0366004610d71565b6001600160a01b031660009081526033602052604090205490565b6101a061043b565b6101a0610471565b6065546040516001600160a01b03909116815260200161011a565b61010d610576565b61013661020c366004610d0b565b610585565b61013661021f366004610d0b565b61061e565b61014a610232366004610d93565b6001600160a01b03918216600090815260346020908152604080832093909416825291909152205490565b6101a061026b366004610d71565b61062b565b60606036805461027f90610dc6565b80601f01602080910402602001604051908101604052809291908181526020018280546102ab90610dc6565b80156102f85780601f106102cd576101008083540402835291602001916102f8565b820191906000526020600020905b8154815290600101906020018083116102db57829003601f168201915b5050505050905090565b600061030f3384846106c3565b50600192915050565b60006103258484846107e7565b6001600160a01b0384166000908152603460209081526040808320338452909152902054828110156103af5760405162461bcd60e51b815260206004820152602860248201527f45524332303a207472616e7366657220616d6f756e74206578636565647320616044820152676c6c6f77616e636560c01b60648201526084015b60405180910390fd5b6103bc85338584036106c3565b506001949350505050565b3360008181526034602090815260408083206001600160a01b0387168452909152812054909161030f9185906103fe908690610e01565b6106c3565b6065546001600160a01b0316331461042d5760405162461bcd60e51b81526004016103a690610e27565b61043782826109b6565b5050565b6065546001600160a01b031633146104655760405162461bcd60e51b81526004016103a690610e27565b61046f6000610a95565b565b600054610100900460ff1661048c5760005460ff1615610490565b303b155b6104f35760405162461bcd60e51b815260206004820152602e60248201527f496e697469616c697a61626c653a20636f6e747261637420697320616c72656160448201526d191e481a5b9a5d1a585b1a5e995960921b60648201526084016103a6565b600054610100900460ff16158015610515576000805461ffff19166101011790555b6105596040518060400160405280600781526020016626bcaa37b5b2b760c91b815250604051806040016040528060038152602001624d544b60e81b815250610ae7565b610561610b20565b8015610573576000805461ff00191690555b50565b60606037805461027f90610dc6565b3360009081526034602090815260408083206001600160a01b0386168452909152812054828110156106075760405162461bcd60e51b815260206004820152602560248201527f45524332303a2064656372656173656420616c6c6f77616e63652062656c6f77604482015264207a65726f60d81b60648201526084016103a6565b61061433858584036106c3565b5060019392505050565b600061030f3384846107e7565b6065546001600160a01b031633146106555760405162461bcd60e51b81526004016103a690610e27565b6001600160a01b0381166106ba5760405162461bcd60e51b815260206004820152602660248201527f4f776e61626c653a206e6577206f776e657220697320746865207a65726f206160448201526564647265737360d01b60648201526084016103a6565b61057381610a95565b6001600160a01b0383166107255760405162461bcd60e51b8152602060048201526024808201527f45524332303a20617070726f76652066726f6d20746865207a65726f206164646044820152637265737360e01b60648201526084016103a6565b6001600160a01b0382166107865760405162461bcd60e51b815260206004820152602260248201527f45524332303a20617070726f766520746f20746865207a65726f206164647265604482015261737360f01b60648201526084016103a6565b6001600160a01b0383811660008181526034602090815260408083209487168084529482529182902085905590518481527f8c5be1e5ebec7d5bd14f71427d1e84f3dd0314c0f7b2291e5b200ac8c7c3b925910160405180910390a3505050565b6001600160a01b03831661084b5760405162461bcd60e51b815260206004820152602560248201527f45524332303a207472616e736665722066726f6d20746865207a65726f206164604482015264647265737360d81b60648201526084016103a6565b6001600160a01b0382166108ad5760405162461bcd60e51b815260206004820152602360248201527f45524332303a207472616e7366657220746f20746865207a65726f206164647260448201526265737360e81b60648201526084016103a6565b6001600160a01b038316600090815260336020526040902054818110156109255760405162461bcd60e51b815260206004820152602660248201527f45524332303a207472616e7366657220616d6f756e7420657863656564732062604482015265616c616e636560d01b60648201526084016103a6565b6001600160a01b0380851660009081526033602052604080822085850390559185168152908120805484929061095c908490610e01565b92505081905550826001600160a01b0316846001600160a01b03167fddf252ad1be2c89b69c2b068fc378daa952ba7f163c4a11628f55a4df523b3ef846040516109a891815260200190565b60405180910390a350505050565b6001600160a01b038216610a0c5760405162461bcd60e51b815260206004820152601f60248201527f45524332303a206d696e7420746f20746865207a65726f20616464726573730060448201526064016103a6565b8060356000828254610a1e9190610e01565b90915550506001600160a01b03821660009081526033602052604081208054839290610a4b908490610e01565b90915550506040518181526001600160a01b038316906000907fddf252ad1be2c89b69c2b068fc378daa952ba7f163c4a11628f55a4df523b3ef9060200160405180910390a35050565b606580546001600160a01b038381166001600160a01b0319831681179093556040519116919082907f8be0079c531659141344cd1fd0a4f28419497f9722a3daafe3b4186f6b6457e090600090a35050565b600054610100900460ff16610b0e5760405162461bcd60e51b81526004016103a690610e5c565b610b16610b5c565b6104378282610b83565b600054610100900460ff16610b475760405162461bcd60e51b81526004016103a690610e5c565b610b4f610b5c565b61046f610bd1565b505050565b600054610100900460ff1661046f5760405162461bcd60e51b81526004016103a690610e5c565b600054610100900460ff16610baa5760405162461bcd60e51b81526004016103a690610e5c565b8151610bbd906036906020850190610c01565b508051610b57906037906020840190610c01565b600054610100900460ff16610bf85760405162461bcd60e51b81526004016103a690610e5c565b61046f33610a95565b828054610c0d90610dc6565b90600052602060002090601f016020900481019282610c2f5760008555610c75565b82601f10610c4857805160ff1916838001178555610c75565b82800160010185558215610c75579182015b82811115610c75578251825591602001919060010190610c5a565b50610c81929150610c85565b5090565b5b80821115610c815760008155600101610c86565b600060208083528351808285015260005b81811015610cc757858101830151858201604001528201610cab565b81811115610cd9576000604083870101525b50601f01601f1916929092016040019392505050565b80356001600160a01b0381168114610d0657600080fd5b919050565b60008060408385031215610d1e57600080fd5b610d2783610cef565b946020939093013593505050565b600080600060608486031215610d4a57600080fd5b610d5384610cef565b9250610d6160208501610cef565b9150604084013590509250925092565b600060208284031215610d8357600080fd5b610d8c82610cef565b9392505050565b60008060408385031215610da657600080fd5b610daf83610cef565b9150610dbd60208401610cef565b90509250929050565b600181811c90821680610dda57607f821691505b60208210811415610dfb57634e487b7160e01b600052602260045260246000fd5b50919050565b60008219821115610e2257634e487b7160e01b600052601160045260246000fd5b500190565b6020808252818101527f4f776e61626c653a2063616c6c6572206973206e6f7420746865206f776e6572604082015260600190565b6020808252602b908201527f496e697469616c697a61626c653a20636f6e7472616374206973206e6f74206960408201526a6e697469616c697a696e6760a81b60608201526080019056fea2646970667358221220e8413e3adf8dbc478c51edc924b84bb031cddf7a7dd5575d36cbf8fc95bc197d64736f6c63430008090033",
  "linkReferences": {},
  "deployedLinkReferences": {}
}