{
  "_format": "hh-sol-artifact-1",
  "contractName": "MATRGovernor",
  "sourceName": "contracts/GovernanceDao/governance.sol",
  "abi": [
    {
      "anonymous": false,
      "inputs": [
        {
          "indexed": false,
          "internalType": "uint256",
          "name": "proposalId",
          "type": "uint256"
        }
      ],
      "name": "ProposalCanceled",
      "type": "event"
    },
    {
      "anonymous": false,
      "inputs": [
        {
          "indexed": false,
          "internalType": "uint256",
          "name": "proposalId",
          "type": "uint256"
        },
        {
          "indexed": false,
          "internalType": "address",
          "name": "proposer",
          "type": "address"
        },
        {
          "indexed": false,
          "internalType": "address[]",
          "name": "targets",
          "type": "address[]"
        },
        {
          "indexed": false,
          "internalType": "uint256[]",
          "name": "values",
          "type": "uint256[]"
        },
        {
          "indexed": false,
          "internalType": "string[]",
          "name": "signatures",
          "type": "string[]"
        },
        {
          "indexed": false,
          "internalType": "bytes[]",
          "name": "calldatas",
          "type": "bytes[]"
        },
        {
          "indexed": false,
          "internalType": "uint256",
          "name": "startBlock",
          "type": "uint256"
        },
        {
          "indexed": false,
          "internalType": "uint256",
          "name": "endBlock",
          "type": "uint256"
        },
        {
          "indexed": false,
          "internalType": "string",
          "name": "description",
          "type": "string"
        }
      ],
      "name": "ProposalCreated",
      "type": "event"
    },
    {
      "anonymous": false,
      "inputs": [
        {
          "indexed": false,
          "internalType": "uint256",
          "name": "proposalId",
          "type": "uint256"
        }
      ],
      "name": "ProposalExecuted",
      "type": "event"
    },
    {
      "anonymous": false,
      "inputs": [
        {
          "indexed": false,
          "internalType": "uint256",
          "name": "proposalId",
          "type": "uint256"
        },
        {
          "indexed": false,
          "internalType": "uint256",
          "name": "eta",
          "type": "uint256"
        }
      ],
      "name": "ProposalQueued",
      "type": "event"
    },
    {
      "anonymous": false,
      "inputs": [
        {
          "indexed": false,
          "internalType": "uint256",
          "name": "oldQuorum",
          "type": "uint256"
        },
        {
          "indexed": false,
          "internalType": "uint256",
          "name": "newQuorum",
          "type": "uint256"
        }
      ],
      "name": "QuorumUpdated",
      "type": "event"
    },
    {
      "anonymous": false,
      "inputs": [
        {
          "indexed": false,
          "internalType": "address",
          "name": "oldTimelock",
          "type": "address"
        },
        {
          "indexed": false,
          "internalType": "address",
          "name": "newTimelock",
          "type": "address"
        }
      ],
      "name": "TimelockChange",
      "type": "event"
    },
    {
      "anonymous": false,
      "inputs": [
        {
          "indexed": true,
          "internalType": "address",
          "name": "voter",
          "type": "address"
        },
        {
          "indexed": false,
          "internalType": "uint256",
          "name": "proposalId",
          "type": "uint256"
        },
        {
          "indexed": false,
          "internalType": "uint8",
          "name": "support",
          "type": "uint8"
        },
        {
          "indexed": false,
          "internalType": "uint256",
          "name": "weight",
          "type": "uint256"
        },
        {
          "indexed": false,
          "internalType": "string",
          "name": "reason",
          "type": "string"
        }
      ],
      "name": "VoteCast",
      "type": "event"
    },
    {
      "anonymous": false,
      "inputs": [
        {
          "indexed": false,
          "internalType": "uint256",
          "name": "oldVotingDelay",
          "type": "uint256"
        },
        {
          "indexed": false,
          "internalType": "uint256",
          "name": "newVotingDelay",
          "type": "uint256"
        }
      ],
      "name": "VotingDelayUpdated",
      "type": "event"
    },
    {
      "anonymous": false,
      "inputs": [
        {
          "indexed": false,
          "internalType": "uint256",
          "name": "oldVotingPeriod",
          "type": "uint256"
        },
        {
          "indexed": false,
          "internalType": "uint256",
          "name": "newVotingPeriod",
          "type": "uint256"
        }
      ],
      "name": "VotingPeriodUpdated",
      "type": "event"
    },
    {
      "inputs": [],
      "name": "BALLOT_TYPEHASH",
      "outputs": [
        {
          "internalType": "bytes32",
          "name": "",
          "type": "bytes32"
        }
      ],
      "stateMutability": "view",
      "type": "function"
    },
    {
      "inputs": [],
      "name": "COUNTING_MODE",
      "outputs": [
        {
          "internalType": "string",
          "name": "",
          "type": "string"
        }
      ],
      "stateMutability": "pure",
      "type": "function"
    },
    {
      "inputs": [
        {
          "internalType": "uint256",
          "name": "proposalId",
          "type": "uint256"
        },
        {
          "internalType": "uint8",
          "name": "support",
          "type": "uint8"
        }
      ],
      "name": "castVote",
      "outputs": [
        {
          "internalType": "uint256",
          "name": "",
          "type": "uint256"
        }
      ],
      "stateMutability": "nonpayable",
      "type": "function"
    },
    {
      "inputs": [
        {
          "internalType": "uint256",
          "name": "proposalId",
          "type": "uint256"
        },
        {
          "internalType": "uint8",
          "name": "support",
          "type": "uint8"
        },
        {
          "internalType": "uint8",
          "name": "v",
          "type": "uint8"
        },
        {
          "internalType": "bytes32",
          "name": "r",
          "type": "bytes32"
        },
        {
          "internalType": "bytes32",
          "name": "s",
          "type": "bytes32"
        }
      ],
      "name": "castVoteBySig",
      "outputs": [
        {
          "internalType": "uint256",
          "name": "",
          "type": "uint256"
        }
      ],
      "stateMutability": "nonpayable",
      "type": "function"
    },
    {
      "inputs": [
        {
          "internalType": "uint256",
          "name": "proposalId",
          "type": "uint256"
        },
        {
          "internalType": "uint8",
          "name": "support",
          "type": "uint8"
        },
        {
          "internalType": "string",
          "name": "reason",
          "type": "string"
        }
      ],
      "name": "castVoteWithReason",
      "outputs": [
        {
          "internalType": "uint256",
          "name": "",
          "type": "uint256"
        }
      ],
      "stateMutability": "nonpayable",
      "type": "function"
    },
    {
      "inputs": [
        {
          "internalType": "address[]",
          "name": "targets",
          "type": "address[]"
        },
        {
          "internalType": "uint256[]",
          "name": "values",
          "type": "uint256[]"
        },
        {
          "internalType": "bytes[]",
          "name": "calldatas",
          "type": "bytes[]"
        },
        {
          "internalType": "bytes32",
          "name": "descriptionHash",
          "type": "bytes32"
        }
      ],
      "name": "execute",
      "outputs": [
        {
          "internalType": "uint256",
          "name": "",
          "type": "uint256"
        }
      ],
      "stateMutability": "payable",
      "type": "function"
    },
    {
      "inputs": [
        {
          "internalType": "address",
          "name": "account",
          "type": "address"
        },
        {
          "internalType": "uint256",
          "name": "blockNumber",
          "type": "uint256"
        }
      ],
      "name": "getVotes",
      "outputs": [
        {
          "internalType": "uint256",
          "name": "",
          "type": "uint256"
        }
      ],
      "stateMutability": "view",
      "type": "function"
    },
    {
      "inputs": [
        {
          "internalType": "uint256",
          "name": "proposalId",
          "type": "uint256"
        },
        {
          "internalType": "address",
          "name": "account",
          "type": "address"
        }
      ],
      "name": "hasVoted",
      "outputs": [
        {
          "internalType": "bool",
          "name": "",
          "type": "bool"
        }
      ],
      "stateMutability": "view",
      "type": "function"
    },
    {
      "inputs": [
        {
          "internalType": "address[]",
          "name": "targets",
          "type": "address[]"
        },
        {
          "internalType": "uint256[]",
          "name": "values",
          "type": "uint256[]"
        },
        {
          "internalType": "bytes[]",
          "name": "calldatas",
          "type": "bytes[]"
        },
        {
          "internalType": "bytes32",
          "name": "descriptionHash",
          "type": "bytes32"
        }
      ],
      "name": "hashProposal",
      "outputs": [
        {
          "internalType": "uint256",
          "name": "",
          "type": "uint256"
        }
      ],
      "stateMutability": "pure",
      "type": "function"
    },
    {
      "inputs": [
        {
          "internalType": "contract ERC20VotesUpgradeable",
          "name": "_token",
          "type": "address"
        },
        {
          "internalType": "contract TimelockControllerUpgradeable",
          "name": "_timelock",
          "type": "address"
        },
        {
          "internalType": "uint256",
          "name": "votingDelay_",
          "type": "uint256"
        },
        {
          "internalType": "uint256",
          "name": "votingPeriod_",
          "type": "uint256"
        },
        {
          "internalType": "uint256",
          "name": "quorum_",
          "type": "uint256"
        },
        {
          "internalType": "uint256",
          "name": "propsoalThreasold",
          "type": "uint256"
        }
      ],
      "name": "initialize",
      "outputs": [],
      "stateMutability": "nonpayable",
      "type": "function"
    },
    {
      "inputs": [],
      "name": "name",
      "outputs": [
        {
          "internalType": "string",
          "name": "",
          "type": "string"
        }
      ],
      "stateMutability": "view",
      "type": "function"
    },
    {
      "inputs": [
        {
          "internalType": "uint256",
          "name": "proposalId",
          "type": "uint256"
        }
      ],
      "name": "proposalDeadline",
      "outputs": [
        {
          "internalType": "uint256",
          "name": "",
          "type": "uint256"
        }
      ],
      "stateMutability": "view",
      "type": "function"
    },
    {
      "inputs": [
        {
          "internalType": "uint256",
          "name": "proposalId",
          "type": "uint256"
        }
      ],
      "name": "proposalEta",
      "outputs": [
        {
          "internalType": "uint256",
          "name": "",
          "type": "uint256"
        }
      ],
      "stateMutability": "view",
      "type": "function"
    },
    {
      "inputs": [
        {
          "internalType": "uint256",
          "name": "proposalId",
          "type": "uint256"
        }
      ],
      "name": "proposalSnapshot",
      "outputs": [
        {
          "internalType": "uint256",
          "name": "",
          "type": "uint256"
        }
      ],
      "stateMutability": "view",
      "type": "function"
    },
    {
      "inputs": [],
      "name": "proposalThreshold",
      "outputs": [
        {
          "internalType": "uint256",
          "name": "",
          "type": "uint256"
        }
      ],
      "stateMutability": "view",
      "type": "function"
    },
    {
      "inputs": [
        {
          "internalType": "uint256",
          "name": "proposalId",
          "type": "uint256"
        }
      ],
      "name": "proposalVotes",
      "outputs": [
        {
          "internalType": "uint256",
          "name": "againstVotes",
          "type": "uint256"
        },
        {
          "internalType": "uint256",
          "name": "forVotes",
          "type": "uint256"
        },
        {
          "internalType": "uint256",
          "name": "abstainVotes",
          "type": "uint256"
        }
      ],
      "stateMutability": "view",
      "type": "function"
    },
    {
      "inputs": [
        {
          "internalType": "address[]",
          "name": "targets",
          "type": "address[]"
        },
        {
          "internalType": "uint256[]",
          "name": "values",
          "type": "uint256[]"
        },
        {
          "internalType": "bytes[]",
          "name": "calldatas",
          "type": "bytes[]"
        },
        {
          "internalType": "string",
          "name": "description",
          "type": "string"
        }
      ],
      "name": "propose",
      "outputs": [
        {
          "internalType": "uint256",
          "name": "",
          "type": "uint256"
        }
      ],
      "stateMutability": "nonpayable",
      "type": "function"
    },
    {
      "inputs": [
        {
          "internalType": "address[]",
          "name": "targets",
          "type": "address[]"
        },
        {
          "internalType": "uint256[]",
          "name": "values",
          "type": "uint256[]"
        },
        {
          "internalType": "bytes[]",
          "name": "calldatas",
          "type": "bytes[]"
        },
        {
          "internalType": "bytes32",
          "name": "descriptionHash",
          "type": "bytes32"
        }
      ],
      "name": "queue",
      "outputs": [
        {
          "internalType": "uint256",
          "name": "",
          "type": "uint256"
        }
      ],
      "stateMutability": "nonpayable",
      "type": "function"
    },
    {
      "inputs": [
        {
          "internalType": "uint256",
          "name": "blockNumber",
          "type": "uint256"
        }
      ],
      "name": "quorum",
      "outputs": [
        {
          "internalType": "uint256",
          "name": "",
          "type": "uint256"
        }
      ],
      "stateMutability": "view",
      "type": "function"
    },
    {
      "inputs": [
        {
          "internalType": "uint256",
          "name": "newQuorum",
          "type": "uint256"
        }
      ],
      "name": "setQuorum",
      "outputs": [],
      "stateMutability": "nonpayable",
      "type": "function"
    },
    {
      "inputs": [
        {
          "internalType": "uint256",
          "name": "newVotingDelay",
          "type": "uint256"
        }
      ],
      "name": "setVotingDelay",
      "outputs": [],
      "stateMutability": "nonpayable",
      "type": "function"
    },
    {
      "inputs": [
        {
          "internalType": "uint256",
          "name": "newVotingPeriod",
          "type": "uint256"
        }
      ],
      "name": "setVotingPeriod",
      "outputs": [],
      "stateMutability": "nonpayable",
      "type": "function"
    },
    {
      "inputs": [
        {
          "internalType": "uint256",
          "name": "proposalId",
          "type": "uint256"
        }
      ],
      "name": "state",
      "outputs": [
        {
          "internalType": "enum IGovernorUpgradeable.ProposalState",
          "name": "",
          "type": "uint8"
        }
      ],
      "stateMutability": "view",
      "type": "function"
    },
    {
      "inputs": [
        {
          "internalType": "bytes4",
          "name": "interfaceId",
          "type": "bytes4"
        }
      ],
      "name": "supportsInterface",
      "outputs": [
        {
          "internalType": "bool",
          "name": "",
          "type": "bool"
        }
      ],
      "stateMutability": "view",
      "type": "function"
    },
    {
      "inputs": [],
      "name": "timelock",
      "outputs": [
        {
          "internalType": "address",
          "name": "",
          "type": "address"
        }
      ],
      "stateMutability": "view",
      "type": "function"
    },
    {
      "inputs": [],
      "name": "token",
      "outputs": [
        {
          "internalType": "contract ERC20VotesUpgradeable",
          "name": "",
          "type": "address"
        }
      ],
      "stateMutability": "view",
      "type": "function"
    },
    {
      "inputs": [
        {
          "internalType": "contract TimelockControllerUpgradeable",
          "name": "newTimelock",
          "type": "address"
        }
      ],
      "name": "updateTimelock",
      "outputs": [],
      "stateMutability": "nonpayable",
      "type": "function"
    },
    {
      "inputs": [],
      "name": "version",
      "outputs": [
        {
          "internalType": "string",
          "name": "",
          "type": "string"
        }
      ],
      "stateMutability": "view",
      "type": "function"
    },
    {
      "inputs": [],
      "name": "votingDelay",
      "outputs": [
        {
          "internalType": "uint256",
          "name": "",
          "type": "uint256"
        }
      ],
      "stateMutability": "view",
      "type": "function"
    },
    {
      "inputs": [],
      "name": "votingPeriod",
      "outputs": [
        {
          "internalType": "uint256",
          "name": "",
          "type": "uint256"
        }
      ],
      "stateMutability": "view",
      "type": "function"
    },
    {
      "stateMutability": "payable",
      "type": "receive"
    }
  ],
  "bytecode": "0x608060405234801561001057600080fd5b50612c08806100206000396000f3fe6080604052600436106101d15760003560e01c80637d5e81e2116100f7578063c59057e411610095578063ea0217cf11610064578063ea0217cf146105f4578063eb9019d414610614578063f8ce560a14610634578063fc0c546a1461065457600080fd5b8063c59057e414610527578063d33219b414610547578063dd4e2ba51461057a578063deaaa7cc146105c057600080fd5b8063ab58fb8e116100d1578063ab58fb8e146104b1578063b58131b0146104d1578063c01f9e37146104e7578063c1ba4e591461050757600080fd5b80637d5e81e21461045157806386489ba914610471578063a890c9101461049157600080fd5b80633bccf4fd1161016f57806354fd4d501161013e57806354fd4d50146103c757806356781388146103f157806370b0f660146104115780637b3c71d31461043157600080fd5b80633bccf4fd146102d95780633e4f49e6146102f95780634385963214610326578063544ffc9c1461037157600080fd5b8063160cbed7116101ab578063160cbed7146102705780632656227d146102905780632d63f693146102a35780633932abb1146102c357600080fd5b806301ffc9a7146101f957806302a251a31461022e57806306fdde031461024e57600080fd5b366101f457306101df610675565b6001600160a01b0316146101f257600080fd5b005b600080fd5b34801561020557600080fd5b506102196102143660046120cd565b61068f565b60405190151581526020015b60405180910390f35b34801561023a57600080fd5b506101c7545b604051908152602001610225565b34801561025a57600080fd5b506102636106a0565b6040516102259190612144565b34801561027c57600080fd5b5061024061028b36600461238f565b610732565b61024061029e36600461238f565b61095d565b3480156102af57600080fd5b506102406102be36600461241e565b610a35565b3480156102cf57600080fd5b506101c654610240565b3480156102e557600080fd5b506102406102f436600461244d565b610a6c565b34801561030557600080fd5b5061031961031436600461241e565b610b00565b60405161022591906124b1565b34801561033257600080fd5b506102196103413660046124d9565b600082815261012f602090815260408083206001600160a01b038516845260030190915290205460ff1692915050565b34801561037d57600080fd5b506103ac61038c36600461241e565b600090815261012f60205260409020805460018201546002909201549092565b60408051938452602084019290925290820152606001610225565b3480156103d357600080fd5b506040805180820190915260018152603160f81b6020820152610263565b3480156103fd57600080fd5b5061024061040c366004612509565b610b0b565b34801561041d57600080fd5b506101f261042c36600461241e565b610b34565b34801561043d57600080fd5b5061024061044c366004612535565b610bb3565b34801561045d57600080fd5b5061024061046c3660046125bb565b610c05565b34801561047d57600080fd5b506101f261048c36600461267b565b610c1c565b34801561049d57600080fd5b506101f26104ac3660046126d4565b610d44565b3480156104bd57600080fd5b506102406104cc36600461241e565b610d88565b3480156104dd57600080fd5b506101c954610240565b3480156104f357600080fd5b5061024061050236600461241e565b610e34565b34801561051357600080fd5b506101f261052236600461241e565b610e63565b34801561053357600080fd5b5061024061054236600461238f565b610eda565b34801561055357600080fd5b50610194546001600160a01b03165b6040516001600160a01b039091168152602001610225565b34801561058657600080fd5b506040805180820190915260208082527f737570706f72743d627261766f2671756f72756d3d666f722c6162737461696e90820152610263565b3480156105cc57600080fd5b506102407f150214d74d59b7d1e90c73fc22ef3d991dd0a76b046543d4d80ab92d2a50328f81565b34801561060057600080fd5b506101f261060f36600461241e565b610f14565b34801561062057600080fd5b5061024061062f3660046126f1565b610f8b565b34801561064057600080fd5b5061024061064f36600461241e565b610f97565b34801561066057600080fd5b5061016154610562906001600160a01b031681565b600061068a610194546001600160a01b031690565b905090565b600061069a82610ff1565b92915050565b606060fd80546106af9061271d565b80601f01602080910402602001604051908101604052809291908181526020018280546106db9061271d565b80156107285780601f106106fd57610100808354040283529160200191610728565b820191906000526020600020905b81548152906001019060200180831161070b57829003601f168201915b5050505050905090565b60008061074186868686610eda565b9050600461074e82610b00565b600781111561075f5761075f61249b565b146107855760405162461bcd60e51b815260040161077c90612752565b60405180910390fd5b610194546040805163793d064960e11b815290516000926001600160a01b03169163f27a0c92916004808301926020929190829003018186803b1580156107cb57600080fd5b505afa1580156107df573d6000803e3d6000fd5b505050506040513d601f19601f820116820180604052508101906108039190612793565b6101945460405163b1c5f42760e01b81529192506001600160a01b03169063b1c5f4279061083e908a908a908a906000908b90600401612875565b60206040518083038186803b15801561085657600080fd5b505afa15801561086a573d6000803e3d6000fd5b505050506040513d601f19601f8201168201806040525081019061088e9190612793565b60008381526101956020526040808220929092556101945491516308f2a0bb60e41b81526001600160a01b0390921691638f2a0bb0916108db918b918b918b91908b9089906004016128c3565b600060405180830381600087803b1580156108f557600080fd5b505af1158015610909573d6000803e3d6000fd5b505050507f9a2e42fd6722813d69113e7d0079d3d940171428df7373df9c7f7617cfda289282824261093b9190612931565b6040805192835260208301919091520160405180910390a15095945050505050565b60008061096c86868686610eda565b9050600061097982610b00565b9050600481600781111561098f5761098f61249b565b14806109ac575060058160078111156109aa576109aa61249b565b145b6109c85760405162461bcd60e51b815260040161077c90612752565b600082815260fe602052604090819020600201805460ff19166001179055517f712ae1383f79ac853f8d882153778e0260ef8f03b504e2866e0593e04d2b291f90610a169084815260200190565b60405180910390a1610a2b8288888888611016565b5095945050505050565b600081815260fe602090815260408083208151928301909152546001600160401b0316908190525b6001600160401b031692915050565b604080517f150214d74d59b7d1e90c73fc22ef3d991dd0a76b046543d4d80ab92d2a50328f602082015290810186905260ff851660608201526000908190610ad890610ad0906080016040516020818303038152906040528051906020012061102a565b868686611078565b9050610af587828860405180602001604052806000815250611096565b979650505050505050565b600061069a826111a0565b600080339050610b2c84828560405180602001604052806000815250611096565b949350505050565b610b3c610675565b6001600160a01b0316336001600160a01b031614610b6c5760405162461bcd60e51b815260040161077c90612949565b6101c680549082905560408051828152602081018490527f16569b50c8812bb18e4b5c46b0fee4a9acbb3a9dca1e1badce427e8d75b5652d91015b60405180910390a15050565b600080339050610bfb86828787878080601f01602080910402602001604051908101604052809392919081815260200183838082843760009201919091525061109692505050565b9695505050505050565b6000610c138585858561127f565b95945050505050565b600054610100900460ff16610c375760005460ff1615610c3b565b303b155b610c9e5760405162461bcd60e51b815260206004820152602e60248201527f496e697469616c697a61626c653a20636f6e747261637420697320616c72656160448201526d191e481a5b9a5d1a585b1a5e995960921b606482015260840161077c565b600054610100900460ff16158015610cc0576000805461ffff19166101011790555b610cf76040518060400160405280601681526020017526a0aa2910283937ba37b1b7b61023b7bb32b93737b960511b815250611560565b610cff6115cf565b610d0887611618565b610d1186611660565b6101c68590556101c78490556101c88390556101c98290558015610d3b576000805461ff00191690555b50505050505050565b610d4c610675565b6001600160a01b0316336001600160a01b031614610d7c5760405162461bcd60e51b815260040161077c90612949565b610d85816116b0565b50565b610194546000828152610195602052604080822054905163d45c443560e01b81526004810191909152909182916001600160a01b039091169063d45c44359060240160206040518083038186803b158015610de257600080fd5b505afa158015610df6573d6000803e3d6000fd5b505050506040513d601f19601f82011682018060405250810190610e1a9190612793565b905080600114610e2a5780610e2d565b60005b9392505050565b600081815260fe602090815260408083208151928301909152600101546001600160401b031690819052610a5d565b610e6b610675565b6001600160a01b0316336001600160a01b031614610e9b5760405162461bcd60e51b815260040161077c90612949565b6101c880549082905560408051828152602081018490527f6784e9bcb845caaa98267d7b0918f97d3d17f7cb35a05b52010f7eb587a0acb09101610ba7565b600084848484604051602001610ef39493929190612980565b60408051601f19818403018152919052805160209091012095945050505050565b610f1c610675565b6001600160a01b0316336001600160a01b031614610f4c5760405162461bcd60e51b815260040161077c90612949565b6101c780549082905560408051828152602081018490527fffc708f072ca56e3d45ef0cb288b96cb9378f5f63e1646868bfbc9c38f4263a19101610ba7565b6000610e2d838361171b565b6000438210610fe85760405162461bcd60e51b815260206004820152601f60248201527f4552433230566f7465733a20626c6f636b206e6f7420796574206d696e656400604482015260640161077c565b50506101c85490565b60006001600160e01b03198216636e665ced60e01b148061069a575061069a826117a1565b61102385858585856117d6565b5050505050565b600061069a61103761184b565b8360405161190160f01b6020820152602281018390526042810182905260009060620160405160208183030381529060405280519060200120905092915050565b6000806000611089878787876118c6565b91509150610a2b816119b3565b600084815260fe6020526040812060016110af87610b00565b60078111156110c0576110c061249b565b146111195760405162461bcd60e51b815260206004820152602360248201527f476f7665726e6f723a20766f7465206e6f742063757272656e746c792061637460448201526269766560e81b606482015260840161077c565b604080516020810190915281546001600160401b031690819052600090611141908790610f8b565b905061114f87878784611b6e565b856001600160a01b03167fb8e138887d0aa13bab447e82de9d5c1777041ecd21ca36ba824ff1e6c07ddda48887848860405161118e94939291906129cb565b60405180910390a29695505050505050565b6000806111ac83611cee565b905060048160078111156111c2576111c261249b565b146111cd5792915050565b60008381526101956020526040902054806111e9575092915050565b61019454604051632ab0f52960e01b8152600481018390526001600160a01b0390911690632ab0f5299060240160206040518083038186803b15801561122e57600080fd5b505afa158015611242573d6000803e3d6000fd5b505050506040513d601f19601f8201168201806040525081019061126691906129f3565b15611275575060079392505050565b5060059392505050565b600061128b6101c95490565b61129a3361062f600143612a15565b101561131a5760405162461bcd60e51b815260206004820152604360248201527f476f7665726e6f72436f6d7061746962696c697479427261766f3a2070726f7060448201527f6f73657220766f7465732062656c6f772070726f706f73616c207468726573686064820152621bdb1960ea1b608482015260a40161077c565b600061132f8686868680519060200120610eda565b905084518651146113525760405162461bcd60e51b815260040161077c90612a2c565b83518651146113735760405162461bcd60e51b815260040161077c90612a2c565b60008651116113c45760405162461bcd60e51b815260206004820152601860248201527f476f7665726e6f723a20656d7074792070726f706f73616c0000000000000000604482015260640161077c565b600081815260fe6020908152604091829020825191820190925281546001600160401b031690819052156114445760405162461bcd60e51b815260206004820152602160248201527f476f7665726e6f723a2070726f706f73616c20616c72656164792065786973746044820152607360f81b606482015260840161077c565b60006114586114536101c65490565b611e53565b61146143611e53565b61146b9190612a6d565b9050600061147c6114536101c75490565b6114869083612a6d565b835467ffffffffffffffff19166001600160401b038416178455905060018301805467ffffffffffffffff19166001600160401b0383161790557f7d84a6263ae0d98d3329bd7b46bb4e8d6f98cd35a7adb45c274c8b7fd5ebd5e084338b8b8d516001600160401b038111156114fe576114fe612157565b60405190808252806020026020018201604052801561153157816020015b606081526020019060019003908161151c5790505b508c88888e60405161154b99989796959493929190612a98565b60405180910390a15091979650505050505050565b600054610100900460ff166115875760405162461bcd60e51b815260040161077c90612b87565b61158f611ebf565b611597611ebf565b6115be816115b96040805180820190915260018152603160f81b602082015290565b611ee6565b6115c6611ebf565b610d8581611f27565b600054610100900460ff166115f65760405162461bcd60e51b815260040161077c90612b87565b6115fe611ebf565b611606611ebf565b61160e611ebf565b611616611ebf565b565b600054610100900460ff1661163f5760405162461bcd60e51b815260040161077c90612b87565b611647611ebf565b61164f611ebf565b611657611ebf565b610d8581611f65565b600054610100900460ff166116875760405162461bcd60e51b815260040161077c90612b87565b61168f611ebf565b611697611ebf565b61169f611ebf565b6116a7611ebf565b610d8581611faf565b61019454604080516001600160a01b03928316815291831660208301527f08f74ea46ef7894f65eabfb5e6e695de773a000b47c529ab559178069b226401910160405180910390a161019480546001600160a01b0319166001600160a01b0392909216919091179055565b61016154604051630748d63560e31b81526001600160a01b038481166004830152602482018490526000921690633a46b1a89060440160206040518083038186803b15801561176957600080fd5b505afa15801561177d573d6000803e3d6000fd5b505050506040513d601f19601f82011682018060405250810190610e2d9190612793565b60006001600160e01b0319821663bf26d89760e01b148061069a57506301ffc9a760e01b6001600160e01b031983161461069a565b6101945460405163e38335e560e01b81526001600160a01b039091169063e38335e5903490611812908890889088906000908990600401612875565b6000604051808303818588803b15801561182b57600080fd5b505af115801561183f573d6000803e3d6000fd5b50505050505050505050565b600061068a7f8b73c3c69bb8fe3d512ecc4cf759cc79239f7b179b0ffacaa9a75d522b39400f61187a60655490565b6066546040805160208101859052908101839052606081018290524660808201523060a082015260009060c0016040516020818303038152906040528051906020012090509392505050565b6000807f7fffffffffffffffffffffffffffffff5d576e7357a4501ddfe92f46681b20a08311156118fd57506000905060036119aa565b8460ff16601b1415801561191557508460ff16601c14155b1561192657506000905060046119aa565b6040805160008082526020820180845289905260ff881692820192909252606081018690526080810185905260019060a0016020604051602081039080840390855afa15801561197a573d6000803e3d6000fd5b5050604051601f1901519150506001600160a01b0381166119a3576000600192509250506119aa565b9150600090505b94509492505050565b60008160048111156119c7576119c761249b565b14156119d05750565b60018160048111156119e4576119e461249b565b1415611a325760405162461bcd60e51b815260206004820152601860248201527f45434453413a20696e76616c6964207369676e61747572650000000000000000604482015260640161077c565b6002816004811115611a4657611a4661249b565b1415611a945760405162461bcd60e51b815260206004820152601f60248201527f45434453413a20696e76616c6964207369676e6174757265206c656e67746800604482015260640161077c565b6003816004811115611aa857611aa861249b565b1415611b015760405162461bcd60e51b815260206004820152602260248201527f45434453413a20696e76616c6964207369676e6174757265202773272076616c604482015261756560f01b606482015260840161077c565b6004816004811115611b1557611b1561249b565b1415610d855760405162461bcd60e51b815260206004820152602260248201527f45434453413a20696e76616c6964207369676e6174757265202776272076616c604482015261756560f01b606482015260840161077c565b600084815261012f602090815260408083206001600160a01b0387168452600381019092529091205460ff1615611bf75760405162461bcd60e51b815260206004820152602760248201527f476f7665726e6f72566f74696e6753696d706c653a20766f746520616c726561604482015266191e4818d85cdd60ca1b606482015260840161077c565b6001600160a01b03841660009081526003820160205260408120805460ff1916600117905560ff168360ff161415611c485781816000016000828254611c3d9190612931565b909155506110239050565b60ff831660011415611c685781816001016000828254611c3d9190612931565b60ff831660021415611c885781816002016000828254611c3d9190612931565b60405162461bcd60e51b815260206004820152603560248201527f476f7665726e6f72566f74696e6753696d706c653a20696e76616c69642076616044820152746c756520666f7220656e756d20566f74655479706560581b606482015260840161077c565b600081815260fe60209081526040808320815160a08101835281546001600160401b039081166080830190815282528351808601855260018401549091168152938101939093526002015460ff808216158015938501939093526101009091041615156060830152611d635750600792915050565b806060015115611d765750600292915050565b80515143906001600160401b031610611d925750600092915050565b43611d9f82602001515190565b6001600160401b031610611db65750600192915050565b611dc38160200151611fd6565b15611e0557611dd183612005565b8015611df15750600083815261012f602052604090208054600190910154115b611dfc576003610e2d565b60049392505050565b60405162461bcd60e51b815260206004820152601d60248201527f476f7665726e6f723a20756e6b6e6f776e2070726f706f73616c206964000000604482015260640161077c565b50919050565b60006001600160401b03821115611ebb5760405162461bcd60e51b815260206004820152602660248201527f53616665436173743a2076616c756520646f65736e27742066697420696e203660448201526534206269747360d01b606482015260840161077c565b5090565b600054610100900460ff166116165760405162461bcd60e51b815260040161077c90612b87565b600054610100900460ff16611f0d5760405162461bcd60e51b815260040161077c90612b87565b815160209283012081519190920120606591909155606655565b600054610100900460ff16611f4e5760405162461bcd60e51b815260040161077c90612b87565b8051611f619060fd90602084019061203d565b5050565b600054610100900460ff16611f8c5760405162461bcd60e51b815260040161077c90612b87565b61016180546001600160a01b0319166001600160a01b0392909216919091179055565b600054610100900460ff16610d7c5760405162461bcd60e51b815260040161077c90612b87565b6000611feb82516001600160401b0316151590565b801561069a57505051436001600160401b03909116111590565b600081815261012f60205260408120600281015460018201546120289190612931565b61203461064f85610a35565b11159392505050565b8280546120499061271d565b90600052602060002090601f01602090048101928261206b57600085556120b1565b82601f1061208457805160ff19168380011785556120b1565b828001600101855582156120b1579182015b828111156120b1578251825591602001919060010190612096565b50611ebb9291505b80821115611ebb57600081556001016120b9565b6000602082840312156120df57600080fd5b81356001600160e01b031981168114610e2d57600080fd5b6000815180845260005b8181101561211d57602081850181015186830182015201612101565b8181111561212f576000602083870101525b50601f01601f19169290920160200192915050565b602081526000610e2d60208301846120f7565b634e487b7160e01b600052604160045260246000fd5b604051601f8201601f191681016001600160401b038111828210171561219557612195612157565b604052919050565b60006001600160401b038211156121b6576121b6612157565b5060051b60200190565b6001600160a01b0381168114610d8557600080fd5b600082601f8301126121e657600080fd5b813560206121fb6121f68361219d565b61216d565b82815260059290921b8401810191818101908684111561221a57600080fd5b8286015b8481101561223e578035612231816121c0565b835291830191830161221e565b509695505050505050565b600082601f83011261225a57600080fd5b8135602061226a6121f68361219d565b82815260059290921b8401810191818101908684111561228957600080fd5b8286015b8481101561223e578035835291830191830161228d565b60006001600160401b038311156122bd576122bd612157565b6122d0601f8401601f191660200161216d565b90508281528383830111156122e457600080fd5b828260208301376000602084830101529392505050565b600082601f83011261230c57600080fd5b8135602061231c6121f68361219d565b82815260059290921b8401810191818101908684111561233b57600080fd5b8286015b8481101561223e5780356001600160401b0381111561235e5760008081fd5b8701603f810189136123705760008081fd5b6123818986830135604084016122a4565b84525091830191830161233f565b600080600080608085870312156123a557600080fd5b84356001600160401b03808211156123bc57600080fd5b6123c8888389016121d5565b955060208701359150808211156123de57600080fd5b6123ea88838901612249565b9450604087013591508082111561240057600080fd5b5061240d878288016122fb565b949793965093946060013593505050565b60006020828403121561243057600080fd5b5035919050565b803560ff8116811461244857600080fd5b919050565b600080600080600060a0868803121561246557600080fd5b8535945061247560208701612437565b935061248360408701612437565b94979396509394606081013594506080013592915050565b634e487b7160e01b600052602160045260246000fd5b60208101600883106124d357634e487b7160e01b600052602160045260246000fd5b91905290565b600080604083850312156124ec57600080fd5b8235915060208301356124fe816121c0565b809150509250929050565b6000806040838503121561251c57600080fd5b8235915061252c60208401612437565b90509250929050565b6000806000806060858703121561254b57600080fd5b8435935061255b60208601612437565b925060408501356001600160401b038082111561257757600080fd5b818701915087601f83011261258b57600080fd5b81358181111561259a57600080fd5b8860208285010111156125ac57600080fd5b95989497505060200194505050565b600080600080608085870312156125d157600080fd5b84356001600160401b03808211156125e857600080fd5b6125f4888389016121d5565b9550602087013591508082111561260a57600080fd5b61261688838901612249565b9450604087013591508082111561262c57600080fd5b612638888389016122fb565b9350606087013591508082111561264e57600080fd5b508501601f8101871361266057600080fd5b61266f878235602084016122a4565b91505092959194509250565b60008060008060008060c0878903121561269457600080fd5b863561269f816121c0565b955060208701356126af816121c0565b95989597505050506040840135936060810135936080820135935060a0909101359150565b6000602082840312156126e657600080fd5b8135610e2d816121c0565b6000806040838503121561270457600080fd5b823561270f816121c0565b946020939093013593505050565b600181811c9082168061273157607f821691505b60208210811415611e4d57634e487b7160e01b600052602260045260246000fd5b60208082526021908201527f476f7665726e6f723a2070726f706f73616c206e6f74207375636365737366756040820152601b60fa1b606082015260800190565b6000602082840312156127a557600080fd5b5051919050565b600081518084526020808501945080840160005b838110156127e55781516001600160a01b0316875295820195908201906001016127c0565b509495945050505050565b600081518084526020808501945080840160005b838110156127e557815187529582019590820190600101612804565b600081518084526020808501808196508360051b8101915082860160005b858110156128685782840389526128568483516120f7565b9885019893509084019060010161283e565b5091979650505050505050565b60a08152600061288860a08301886127ac565b828103602084015261289a81886127f0565b905082810360408401526128ae8187612820565b60608401959095525050608001529392505050565b60c0815260006128d660c08301896127ac565b82810360208401526128e881896127f0565b905082810360408401526128fc8188612820565b60608401969096525050608081019290925260a0909101529392505050565b634e487b7160e01b600052601160045260246000fd5b600082198211156129445761294461291b565b500190565b60208082526018908201527f476f7665726e6f723a206f6e6c79476f7665726e616e63650000000000000000604082015260600190565b60808152600061299360808301876127ac565b82810360208401526129a581876127f0565b905082810360408401526129b98186612820565b91505082606083015295945050505050565b84815260ff84166020820152826040820152608060608201526000610bfb60808301846120f7565b600060208284031215612a0557600080fd5b81518015158114610e2d57600080fd5b600082821015612a2757612a2761291b565b500390565b60208082526021908201527f476f7665726e6f723a20696e76616c69642070726f706f73616c206c656e67746040820152600d60fb1b606082015260800190565b60006001600160401b03808316818516808303821115612a8f57612a8f61291b565b01949350505050565b60006101208b8352602060018060a01b038c1681850152816040850152612ac18285018c6127ac565b91508382036060850152612ad5828b6127f0565b915083820360808501528189518084528284019150828160051b850101838c0160005b83811015612b2657601f19878403018552612b148383516120f7565b94860194925090850190600101612af8565b505086810360a0880152612b3a818c612820565b945050505050612b5560c08401876001600160401b03169052565b6001600160401b03851660e0840152828103610100840152612b7781856120f7565b9c9b505050505050505050505050565b6020808252602b908201527f496e697469616c697a61626c653a20636f6e7472616374206973206e6f74206960408201526a6e697469616c697a696e6760a81b60608201526080019056fea26469706673582212208ffe260457279a2e89b89ac03093233dc487015524b0ba4e35e19998126f72e264736f6c63430008090033",
  "linkReferences": {},
  "deployedLinkReferences": {}
}